:020000022000DC
:1070000000000420757302005D7302005F730200CC
:1070100061730200637302006573020000000000E8
:107020000000000000000000000000006773020084
:1070300069730200000000006B7302006D730200B0
:10704000D5C802006F73020075B702003DDE020072
:10705000DDC202006F730200F9B502006F73020017
:107060006F7302006F7302006F7302006F73020090
:107070006F7302006F7302006F7302006F73020080
:107080006F7302000D8702006F7302006F730200BE
:107090006F7302006F7302007D0F03006F730200B5
:1070A0006F7302006F7302006F7302006F73020050
:1070B0006F7302006F730200000000000000000008
:1070C0006F7302006F7302006F730200B1C202009F
:1070D0006F7302006F7302006F73020055D80200D5
:1070E0006F7302006F7302006F73020000000000F4
:1070F000000000006F730200000000006F730200C8
:10710000000000000000000000000000000000007F
:10711000000000000000000000000000000000006F
:10712000000000000000000000000000000000005F
:10713000000000000000000000000000000000004F
:10714000000000000000000000000000000000003F
:10715000000000000000000000000000000000002F
:10716000000000000000000000000000000000001F
:10717000000000000000000000000000000000000F
:1071800000000000000000000000000000000000FF
:1071900000000000000000000000000000000000EF
:1071A00000000000000000000000000000000000DF
:1071B00000000000000000000000000000000000CF
:1071C00000000000000000000000000000000000BF
:1071D00000000000000000000000000000000000AF
:1071E000000000000000000000000000000000009F
:1071F000000000000000000000000000000000008F
:10720000354936480A1A02D0072291438D4634493F
:1072100034480A1A06D00722914381F309880222D2
:1072200082F3148830483149314A00F044F831483B
:107230003149324A00F03FF831483249324A00F0D1
:107240003AF832483249334A00F035F83248334987
:10725000334A00F030F833483349344A00F02BF811
:1072600033483449344A00F026F83448344900227F
:1072700000F02CF833483449002200F027F8334856
:107280003349091A082902DB002202604160314AB1
:1072900090471F481F49884205D00268043003B454
:1072A000904703BCF7E700208646EC46002000210B
:1072B000294A9047FEE7884207D0521A05D0037842
:1072C00001300B700131013AF9D17047884202D088
:1072D00002700130FAE770470000042000E003204C
:1072E00000000420000004201C36030000230020BE
:1072F000E8240020D0730200D0730200882303002A
:107300001C3603000023002000230020C4240300B7
:10731000C4240300C4240300C4240300C4240300C1
:10732000C4240300C4240300C42403001B36030048
:1073300004380300E8240020E8240020E82400208A
:10734000343C0020343C0020343C0020343C0020FD
:10735000345C00209D730200E5F50200FEE7FEE7C5
:10736000FEE7FEE7FEE7FEE7FEE7FEE7FEE7FEE7F5
:1073700000F002B8FFF7FCBF0F484FF00701884349
:1073800085460E4880470E48016841F4700101604F
:10739000BFF34F8FBFF36F8FFFF732BF09480A4922
:1073A0000A4A884207D0521A05D0037801300B7080
:1073B0000131013AF9D1704700000420A5AB020069
:1073C00088ED00E0C42403000023002000230020F7
:1073D000F0B595B01D46164608460C4601F052FD24
:1073E0001A9B0D93CDE9086500252B46082205A9B7
:1073F00020460A958DF82C500C9501F05FFD079BF7
:107400000293069B03939DF814308DF8115003F0FE
:107410000302012A1DD1BDF81420059DC3F3C20348
:10742000C2F383168DF81030B20008230EA920464F
:1074300001F044FDC5F3952508AB0093324602AB3D
:107440000EA9284600F0AAFB204601F01FFD15B04A
:10745000F0BD022AF8D1BDF81650C3F3C203C5F33C
:1074600089158DF810300827082D2E4628BF0826CC
:107470003B4632460EA9204601F020FDAD1B08AB6D
:1074800002AA31460EA8374400F0ECFB002DEBD1E8
:10749000DAE70000014B01221A707047292500200D
:1074A0007047000070B50E4D06460FCD88B06C4693
:1074B0000FC495E80F00002E84E80F00094A0A481F
:1074C0004FF01F0308BF00226946009303F0ACFD94
:1074D00008B100F0C5FD054B1E7008B070BD00BFBF
:1074E000C42403009574020000230020E824002037
:1074F00007B5044B0093044A4023FFF769FF03B02C
:107500005DF804FB0D750200E924002038B50D4834
:107510000D4C0E4D002323700378EB5CD2B263B1A7
:10752000043004F0F1FD08B100F09AFD084B1A7820
:1075300012B12378002BFBD038BD0C3004F074FB63
:10754000F1E700BF0023002029250020442E002061
:10755000E824002008B50848084A0378D35C3BB10A
:10756000043004F041FDBDE808400020FFF79ABF59
:107570000C3004F0F1FAF6E700230020442E00203E
:107580000120FFF78FBF000008B5FFF7F9FF04489F
:10759000042100F06DFA034B01225A7108BD00BFAF
:1075A000B424030014230020037813F0040216D03F
:1075B00003F00303012B03D0022B09D001207047F5
:1075C0000A6800880232C0F3831002440A60F5E7BB
:1075D0000B684288023303EB92130B60EEE7104610
:1075E000704700002DE9F04FDFF81CA187B00F466F
:1075F00000230446861C0DF1070015468DF8073060
:1076000000F016FFDAF804203A60DAF8083003F5E3
:1076100080739B1A0AF21C470AF583690AF2144820
:10762000B3421AD30020002D69D004F00F039B0150
:1076300043F0050363F30F00DAF80430DAB20332E3
:1076400033444AF822009DF80700CAF8043000F0DD
:1076500013FF012007B0BDE8F08F0121384601F08B
:1076600032F9484601F055F9404601F052F9DAF88E
:1076700008000290C0B203300AEB800002A9FFF7B5
:1076800093FF029B30BBDAB20AEB8202D16803910E
:107690009A1C0133DBB20AEB83030292D3F80CB0DD
:1076A00001F00303012B22D0022B15D08346404664
:1076B00001F032F910B1029BCAF808305946384639
:1076C00001F001F9DAF80830DAF8042003F58073E4
:1076D0009B1AA5E7D8B2CEE7BDF80E30C3F38913E5
:1076E00003334FEA1B4B02EB93030293DFE7BDF832
:1076F0000C30C3F383134FEA1B4B1344F5E7A40587
:1077000044F0060098E700BFFC250020064B074820
:1077100010B500221A7001F06EFB044610B904483F
:1077200001F016FC204610BDFC250020F0230300CC
:107730001825030030B50A4C71B10A4A0A49121BD8
:10774000D20800239A4201D1002030BD31F82350E5
:10775000854202D00133F5E7034654F83300F4E7DD
:1077600004240300B424030000230020094B013942
:1077700003EBC000032909D8DFE801F00A02040680
:1077800004207047007970474079704700207047A7
:107790000220704704240300034BD3E90130C31ACD
:1077A00058425841704700BFFC2500202DE9F041A8
:1077B00086B0FFF7F1FF0546002840F0ED80774CDA
:1077C000C4F81804BFF34F8FA3680293DBB20333EE
:1077D00004EB830002A9FFF7E7FE029B18B1D4F87F
:1077E0001824002A5AD0DAB2991C013304EB820221
:1077F000DBB204EB8303D268DB68049302F003037B
:10780000022B0392029154D1BDF80E306448C3F3A9
:107810008917502F3E4628BF502606F1080166F30F
:107820008F13C1F30901ADF80E3001F0FCFA0546E3
:10783000002800F09C8001F025FB0023082203A90A
:10784000284601F031FB0299CB43DBB20133C9B2C8
:107850000331B6EB830F4FEA830204EB810125D994
:107860005FFA82F80823A6EB0806284601F01CFB05
:10787000F6B208F108034B4903F0FC0332462846F0
:1078800001F012FB029B033703EB97070297D4F832
:107890001834002B43D1D4F8106453E062689A4244
:1078A00094D8A260284606B0BDE8F081082332468D
:1078B000E5E7012B5BD1BDF80C303948C3F38311E8
:1078C000062928BF062161F38913023101F00F0157
:1078D0008900ADF80C3001F0A6FA0546002846D024
:1078E00001F0D0FA0023082203A9284601F0DCFAAF
:1078F0000026BDF80C20C2F38312B300964203F1B8
:107900000803C4D202994A1CC9B20331029204EBA3
:1079100081010422284601F0C7FA0136E9E728462A
:1079200001F0B4FAFFF738FF80F00100C5B2B9E703
:10793000F3685B7923B1336829461B683046984762
:10794000F3681E68002EF3D1284601F09FFA0DF16E
:1079500007008DF8076000F06BFDD4F818340BB900
:10796000029BA3609DF8070000F086FDDAE7D4F8DB
:10797000104454B90C4B0D480D49C01AC0080004FE
:1079800040F0020000F05CF8CCE7236820469B68DA
:107990009847E3681C68ECE7002583E7FC25002096
:1079A000F0230300082600200424030044240300DD
:1079B000012503002DE9F34704460E46924601A92E
:1079C000012218469946FFF70DFE1B4F10B3019D8B
:1079D0004FF00008AA1CC84508EB020123D1174844
:1079E000002100F041FF80F31000000440EA144041
:1079F000E4006B1C04F03804DBB2EDB244F0010487
:107A000007EB8303033544EA881444EA8624D860EC
:107A100047F825403B781BB1FFF7C8FE0028FBD193
:107A200002B0BDE8F087C9B207EB81015AF82830EF
:107A3000CB6008F10108CEE7FC250020182A0020C1
:107A400000231A46FFF7B6BF07B50123019201AA2A
:107A5000FFF7B0FF03B05DF804FB07B5CDE90023E5
:107A600002236A46FFF7A6FF03B05DF804FB00009F
:107A700030B50F4CD4F8102403460020114631B91C
:107A8000D96808714AB9C4F810340A6030BDC968B1
:107A90000D79854206D00968F1E7D26814680C6058
:107AA0001360F3E701300A28E8D14FF0FF30EDE72B
:107AB000FC25002038B5084B0125D3F810441D7073
:107AC00004B938BDE3685D71236820465B68984758
:107AD000E3681C68F4E700BFFC25002030B5C388CC
:107AE00085B004460D4633B1144A00921449154A34
:107AF000284600F074FF217A05291DD0637A4BB126
:107B0000A088FFF733FE104B104953F82020284679
:107B100000F065FF227A0E4BA08853F822200392D2
:107B20000021FFF707FE039A0A490346284605B0DD
:107B3000BDE8304000F053BF05B030BD4425030020
:107B40002C25030024250300B0250300492503004C
:107B5000D42503004C25030007B503460846197ACF
:107B6000052911D05B7A2BB1094A0A49019000F02E
:107B700036FF01980849019000F031FF019803B0E9
:107B80005DF804EB00F020BF002AF8D0F2E700BF58
:107B90004425030049250300412503002DE9F04356
:107BA00085B01F460C9D002395F80C902B7306465C
:107BB0000C46904629463846FFF790FFB8F1060F6D
:107BC00009D8DFE808F00412181F283340003146B6
:107BD000284600F004FF002229463846FFF7BCFF84
:107BE00085F80C9005B0BDE8F08322683146284640
:107BF00000F0F5FEEFE7D4E900233146284600F017
:107C0000EEFEE8E7A36800933146D4E90023284656
:107C100000F0E5FEDFE7E3680193A36800933146D7
:107C2000D4E90023284600F0DAFED4E72369029362
:107C3000E3680193A36800933146D4E90023284602
:107C400000F0CDFEC7E76369039323690293E368FD
:107C50000193A36800933146D4E90023284600F03D
:107C6000BEFEB8E708292DE9F74F80460E461746B5
:107C70001C463DD800251B7B2573214610460193E9
:107C8000FFF72CFFDFF88CA0DFF88CB0AE4232D9C2
:107C900018F805205946204600F0A1FE0135082DB0
:107CA000F4D11B49DFF874A0DFF874B0204600F06F
:107CB00096FE4FF000094E4524D918F809507E2D44
:107CC0001ED8284609F078FF002814BF2A462E2225
:107CD0005946204600F083FE09F10109B9F1080F69
:107CE000E9D1012221463846FFF736FF019B237375
:107CF00003B0BDE8F08F5146204600F070FECDE79E
:107D00002E22E5E75146204600F069FEE4E700BF79
:107D1000602503005C250300562503005E25030053
:107D200062250300C30710B507D4F023054A4008B5
:107D3000145C23401943115410BD0901C9B20F232B
:107D4000F4E700BFE82A002030B5094B1C78094B46
:107D5000196800239C4202DC0022104630BD11F855
:107D60003350854201EBC302F7D00133F2E700BF85
:107D7000B42A0020082B002013B504460191FFF718
:107D8000E3FF38B143682BB10199204602B0BDE84A
:107D90001040184702B010BD034B04481968002278
:107DA000490800F058BA00BFB82A0020C02A0020B5
:107DB00010B5C0B2FFF7C8FF0446007803F00EFC10
:107DC00063785A1E53425341834208D1044BD3E98E
:107DD0000023134303D1BDE81040FFF7DDBF10BD02
:107DE000E02A002037B54308374AD35CC2074CBFAE
:107DF0001B0903F00F0304460D46042B25D8DFE8CA
:107E000003F003262F3C4000F9B10121FFF78AFF60
:107E100000230DF107008DF8073000F009FB012069
:107E2000A4F12003C4F12001284A20FA01F100FA4C
:107E300003F30B43A040D2E9004120430B43C2E9C6
:107E400000039DF8070000F017FB03B030BD0029C8
:107E500018BF0221204603B0BDE83040FFF762BFE3
:107E600049B10321FFF75EFF0121204603B0BDE8C1
:107E70003040FFF781BF0121ECE70029E5D1042163
:107E8000E8E709B10321E5E7FFF74CFF2946204663
:107E9000FFF772FF0DF107008DF8075000F0C8FAE8
:107EA0000120A4F12003C4F12001084A20FA01F1C5
:107EB00000FA03F30B43A040D2E9004124EA00009A
:107EC00021EA0303BBE700BFE82A0020E02A0020E4
:107ED0002DE9F041124E134F00243378A34208DC01
:107EE000114BD3E90023134318D0BDE8F041FFF74D
:107EF00053BF3D6805EBC40815F8340003F06EFB72
:107F000098F801305A1E53425341181A41424141D8
:107F100015F83400FFF766FF0134DEE7BDE8F081B5
:107F2000B42A0020082B0020E02A0020092AF7B5F7
:107F300005460C4616463ED903F0CCF9E8B11F4B76
:107F40001F481D601F4B204F1C70204B002120221A
:107F50001E6009F099FE1E4B00200021C3E90001BC
:107F6000013CE4B20326FF2C0DD11A4A1A48002125
:107F700003B0BDE8F04000F063B903F067F90028F2
:107F8000DDD003B0F0BD9DF8063015F834008DF853
:107F9000046005EBC40223F007038DF8063001A945
:107FA00093788DF805303A4603F028FA013CE4B2A4
:107FB0000028D8D0E5E70720E3E700BF082B002022
:107FC000E82A0020B42A0020B17D0200B82A00204F
:107FD000E02A0020D17E0200F425030070B5084D90
:107FE000084E00242B789C4201D3002070BD3368DA
:107FF000012113F8340003F081FA0134F2E700BFE5
:10800000B42A0020082B002073B5114D114E002416
:108010002B789C4215D300230DF107008DF8073013
:1080200000F006FA0C4B00210020C3E900019DF886
:10803000070000F021FA094802B0BDE8704000F0E6
:1080400022B9336813F8340003F0A6FA0134DFE7ED
:10805000B42A0020082B0020E02A0020C02A00209B
:108060001FB50021039001AA44F20100CDE90111DE
:1080700000F004F805B05DF804FB000038B572B6F6
:10808000FFF718FDFFF792FB0028FBD1104B114CB6
:10809000114D1249E41AE408240444F00100FFF7EA
:1080A000CFFCD5F8F030DB0700D500BE0C4944F01A
:1080B0000200FFF7C5FCBFF34F8FEA68094B02F4DB
:1080C000E0621343EB60BFF34F8F00BFFDE700BFDB
:1080D000042403004424030000ED00E0F82503001D
:1080E000042603000400FA0510B5D0E90243D1E9E3
:1080F0000202A04272EB03032CBF0120002010BD3E
:1081000008B50A4800F0EBFA094AD2E90031C01874
:10811000084BD3E9002341F10001904271EB0303C6
:1081200003D210F1807041F1000108BD1C23002032
:10813000102B0020882B002037B505460C460A4836
:1081400001A900F000FB60B10570446001A9064878
:1081500000F023FB18B1054800F0C6FA002003B078
:1081600030BD0420FBE700BF742B00201C2300203F
:1081700038B5184B1B78044613B90025284638BD7E
:108180000028FAD0037F03F0FF05002BF5D0FFF79E
:10819000B7FFD4E90223904271EB030314D32369A0
:1081A00003B92377D4E90530984721690029E4D041
:1081B000237F03F0FF05002BDFD0D4E902325B18E8
:1081C00042F10002C4E902320348214600F0DFFE1A
:1081D000D4E700BF182B00202026030013B5114B55
:1081E00011491868019008231048582200F098FAA5
:1081F000044698B90E4A0F4801A900F061F90446F7
:1082000060B90C48012100F04DFA01230A4A0948DF
:10821000194600F0AFF9094B01221A70204602B04E
:1082200010BD00BF1C2603001C2B0020742B002057
:10823000A18202001C230020FFFF7F00182B0020DA
:108240003AB103685A614A1E5142514119610020F6
:1082500070470720704738B5037F04460D4683B941
:108260008261FFF74DFF2369281841F10001C4E93D
:10827000020103B1256121460020BDE83840FFF727
:108280005BBF002038BD0023014603770120FFF7C4
:1082900053BF0000014800F022BA00BF1C23002099
:1082A0002DE9F347064600F005FA40B1584AD2E9F5
:1082B000003113F1807341F10001C2E90031002166
:1082C000304600F006FA38B1524C236823B12068DA
:1082D000FFF74EFF002323600121304600F0F9F93B
:1082E00020B1FFF70DFF4C4BC3E900014B48494D4E
:1082F0004B4C4C4F01A900F060FA002842D1DFF846
:108300002081444CDFF82491404600F056FE23685B
:10831000002872D07BB12368D0E90252D3E902135E
:108320008D4272EB03032AD223681B7F1BB12168A5
:10833000404600F02CFE404600F039FED0E9027ABB
:108340000546FFF7DDFE381A6AEB010A01287AF1CB
:10835000000345DBB0F5350F40D3FFF79BFF324AF2
:1083600002444FF496030021484600F023F9002808
:108370003ED1236813B9304600F0F4F8256002B00E
:10838000BDE8F0870378012B1DD0022B09D14FF0F7
:108390000008204600F00BFE002836D080F81C8034
:1083A000F7E73BB941680B7F23B901230B772046E0
:1083B00000F0EDFD01A9194800F02AFA01A91748BB
:1083C00000F0FBF999E741682B68994202D100233C
:1083D0002B60EFE7204600F0F3FDEBE7AA68C0E76B
:1083E0000021484600F06BF92846FFF7C1FE01E086
:1083F0000D28F9D00023236086E7002BBFD130463B
:1084000002B0BDE8F04700F0B1B801233B70D1E7FE
:10841000102B0020902B0020882B0020742B002094
:1084200020260300182B0020FFFFB4001C2300208F
:1084300070B5EFF3108672B60C4A946801239CB9AC
:1084400093600B4B0B4DD3F8801029401160C3F89B
:108450008050D3F8841051604FF0FF32C3F884206D
:10846000047006B962B670BD0370FAE7942B002061
:1084700000E100E0FC06FFBD084B9A6810B55AB158
:1084800050B9EFF3108172B6054A1C6814605C683D
:108490005460986001B962B610BD00BF942B0020F3
:1084A00000E100E0435882B03BB100234350435801
:1084B0000193019B012002B070471846FBE70000C2
:1084C000F8B5204B4479204E43F824201F4A204B16
:1084D00006EBC4049B1A2279DB081B0432B143F07B
:1084E00002001C49FFF7ACFA0820F8BD02680C88AE
:1084F000C2F8084590F904508A7804795201002D99
:10850000D2B219DB14494F1987F8002301226D09F3
:1085100004F01F0402FA04F441F82540427906EB06
:10852000C201012446F832000C7143F003000B49EC
:10853000FFF786FA0020D8E7094904F00F040A552E
:10854000ECE700BFA82B0020A02B00200424030090
:10855000542403002C26030000E100E04E26030013
:1085600014ED00E0036801221A60704703680122DD
:108570005A60704773B501F15005AD000068ADB2A7
:108580004FF480348C400026C0F80843C0F84843BC
:10859000465101F5A8714559019522F07F42019D90
:1085A00040F82120C0F844430BB1C0F8044302B0A6
:1085B00070BD00002DE9F74F0D4622F07F440268A0
:1085C0004FF4803705F150068F408046B60002EB2D
:1085D0008500C2F84873B6B2C2F80873D2F8041521
:1085E00099464FF0000BD0F84035C0F8401542F8DE
:1085F00006B05B1A9259009223F07F43012B009A38
:108600004FEA850A0CD1264B4FF4806043F00103FA
:108610009847D8F8003043F806B09B590193019B66
:10862000D8F80010D1F80465C1F84473A31B23F0F7
:108630007F43012B1CD11A4B05F5A875013443F07B
:10864000010341F825404FF480609847D8F8003086
:10865000D3F804359E4209D1D8F800300020C3F881
:108660004473C3F8047303B0BDE8F08F0D20FAE73C
:108670008A44C9F1FF13CAF84045D1F80405221A0B
:10868000013A22F07F4203F57F439342EED3002A62
:10869000E2D10134CAF84045D1F804359842DAE70E
:1086A0006026030003680222C3F8442309B1C3F81B
:1086B0000423704700684FF48271FFF7F3BE4FF454
:1086C000803303FA01F10368C3F84813C3F80813B1
:1086D000704750318900006889B2FFF7E3BE036834
:1086E000D3F804057047000090F90430002B09DB33
:1086F0005A09012103F01F0301FA03F34032024932
:1087000041F82230704700BF00E100E0024B034A0D
:108710001B681068184700BFA82B0020A02B002062
:1087200010B561B1B2FBF3F403FB1424A4B244B955
:10873000C0E9001484608281C381204610BD0E20F0
:10874000FCE70920FAE737B550E8013F9DB2C4893C
:1087500025448489A54228BF2D1B0489A54202BF58
:10876000BFF32F8F002207E0C5EA030540E801545C
:10877000002CE9D14FF001028DF803200193019AFA
:108780000A609DF8031001F0FF0321B1006810FAA0
:1087900082F003B030BD1846FBE70A884B889A4246
:1087A00009D150E8012FC2EA024240E80123002B20
:1087B000F7D1012070470020704737B550E8023FDD
:1087C0001FFAA3F5C488A54202BFBFF32F8F002272
:1087D0000DE0C48925448489A54228BF2D1BC3EA26
:1087E000054540E80254002CE8D14FF001028DF815
:1087F00003200193019A0A609DF8031001F0FF0322
:1088000021B1006800EB124003B030BD1846FBE711
:108810000A884B889A4209D150E8022FC2EA2242C4
:1088200040E80223002BF7D1012070470020704759
:1088300001F01F024B090121914000EB830000F081
:108840001EB801F01F0301229A404B0900EB830080
:10885000D14300F02CB84B0901F01F0150F8230060
:10886000C84000F00100704710B5034653E8000F00
:108870000A4643E8002494F0000FF7D110BD10B56C
:10888000034653E8002F42EA010043E8000494F055
:10889000000FF6D110BD10B5034653E8000F00EAF3
:1088A000010243E8002494F0000FF6D110BD10B58A
:1088B000034653E8002F02EA010043E8000494F065
:1088C000000FF6D110BD10B5034653E8002F02EBA0
:1088D000010043E8000494F0000FF6D110BD10B57C
:1088E000034653E8002FA2EB010043E8000494F094
:1088F000000FF6D110BD10B5034653E8002F8A4291
:108900002CBF501A104643E8000494F0000FF4D135
:1089100010BD0121FFF7B3BF0021FFF7BCBF10B5A9
:1089200090B1D0E9012301689B1ADBB20A60013BD8
:10893000DBB2FF2B026802D10020107110BD11685C
:108940004C1C14600B70F2E70E20F7E737B50546B4
:1089500000240DF107008DF80740FFF769FD2A6834
:108960006B68116899420ED9481E106011F8013CDD
:10897000EC68298A01FB0344AB6811791B1ADBB24E
:10898000994238BF13719DF80700FFF775FD204627
:1089900003B030BD37B5054600230DF107000C4686
:1089A0008DF80730FFF744FD2A681368591C1160E1
:1089B000E968641A298AB4FBF1F41C709DF8070079
:1089C000FFF75AFD03B030BD826810B504462AB1E6
:1089D00043690168006998470023A36010BD0EB485
:1089E00003B5039921B104AB01AA019300F076F815
:1089F00002B05DF804EB03B070470A2938B50446AD
:108A00000D4602D10D21FFF7F8FFA3682268591C1B
:108A1000A160D554D4E901329A4204D32046BDE87E
:108A20003840FFF7D1BF38BD2DE9F84F9846DDE952
:108A30000A43154682460F460A464FF00109AA42EC
:108A40000FD2C14538BFC14613F0010B01D16CB93B
:108A500000240126B8F1010F1BD908F1FF386E433D
:108A6000F8E709F10109B2FBF5F2E8E79B070ED53B
:108A7000B8F1000F0CBF30262026A145E9D2013CF9
:108A800031465046FFF7B9FF002CF6D1E0E720262B
:108A9000F3E7B7FBF6F39D42E1D9DFF83C80B7FB83
:108AA000F6F3504618F8031006FB1377FFF7A5FFFF
:108AB0003346AB42B6FBF5F6F1D2BBF1000F02D064
:108AC0000CB1A14501D3BDE8F88F20215046013CEF
:108AD000FFF793FFF4E700BF662603002DE9F74F89
:108AE000054617468846002900F03E8118F8011B0C
:108AF00049B92B7B002B00F03781284603B0BDE835
:108B0000F04FFFF761BF252940F0B780002698F8A5
:108B100000302D2B424608F1010823D0302B24D001
:108B20002B2B25D000242A2B02F1010123D13B68F5
:108B30001A1D1B683A601C440A4613782E2B26D156
:108B400001324FF0000A104610F8011BA1F1300C61
:108B5000BCF1090F1DD80A2303FB0A13A3F1300A45
:108B60000246F0E746F00106D1E746F00206CEE7FE
:108B700046F00406CBE711F8013CA3F130000928C8
:108B8000DBD80A2202FB0434303C0A46CBE74FF024
:108B9000000A12F8011B01F0FB0068289046F8D08B
:108BA000782909D86F290CD8632962D022D82529C1
:108BB00063D0582900F0888098F80030002B95D1B8
:108BC00097E770390829F7D801A353F821F000BFBF
:108BD000438D0200B98B0200B98B0200D98C0200D0
:108BE000B98B0200B78C0200B98B0200B98B02006E
:108BF000C98C0200642901D06929DDD13A68D2F814
:108C00000090111D89EAE9723960A2EBE9724FF018
:108C1000010B092A35DCD34538BFD3462CB1B9F155
:108C2000000F01DB720700D5013CB30702D5BAF192
:108C3000000F03D0F00701D44CBB0024B9F1000FA2
:108C40002DDAC9F100092D212846FFF7D6FE06F0DE
:108C50000302022A04D1BAF1000F01D11CBB002487
:108C6000CDE9004653460A2249462846FFF7DCFE76
:108C7000A2E73B681A1D19783A602846FFF7BDFE47
:108C80009AE70A230BF1010BB2FBF3F2C1E7A3450C
:108C9000D4D220212846013CFFF7AFFECCE7710774
:108CA000D5D52B21D0E7A345DAD230212846013C87
:108CB000FFF7A3FED2E73968CDE900460A1D3A6006
:108CC00053460A220968D0E739680A1D3A60CDE99F
:108CD000004653461022F5E73B681A1D3A6016F02D
:108CE0000106D3F8009024D1B9F1000F03D0484613
:108CF00008F0FDFF0646B4421DD809F1FF3919F806
:108D0000011F00293FF458AF2846FFF776FEF6E72B
:108D100028460136FFF771FE19F806100029F7D131
:108D2000A642BFF449AF20212846013CFFF765FE6B
:108D3000F6E70026F0E720212846013CFFF75DFE1C
:108D4000D9E73B681A1D3A60302128461C68FFF7B6
:108D500054FE78212846FFF750FE00220823CDE973
:108D600000322146102280E703B0BDE8F08F00BF3B
:108D70002DE9F84FB0F806A04579D2F800B09DF87B
:108D800028900AFB05F5043D88460BEB0301A94238
:108D900003F1040488BFA5EB030BB4FBFAF6074606
:108DA0000AFB1644C2F800B04EB9AAEB04055D45B3
:108DB00028BF5D46BBF1000F04D1BDE8F88F3F68C6
:108DC000013EF1E7043408EB06003C442A46B9F1C1
:108DD000000F0DD02146ABEB050B08F02CFFDA4558
:108DE0002E443F6855464FF0000428BF5D46E1E73A
:108DF00001462046EFE7FFF792BDF8B546790146F8
:108E0000721E0546002393422D6803D30024A64218
:108E100002D8F8BD0133F6E70F682846FFF7BAFD20
:108E200001343946F3E72DE9F843068ACD1C07469D
:108E3000FFF78CFD043E35440446B5FBF6F5F0B172
:108E40004FF48073EDB28380C680013D0760814698
:108E50004FF00008A84512D23846FFF777FD0646C6
:108E600048B163790133637108F10108C9F8000062
:108E700007608146EEE72046FFF7BFFF34462046F5
:108E8000BDE8F88301210430FFF71DBD10B50121B5
:108E900004460430FFF723FDC0B220B92046BDE8E8
:108EA0001040FFF7AABF10BD1FB503920022009229
:108EB00003AAFFF75DFF05B05DF804FB1FB5039241
:108EC0000122009203AAFFF753FF05B05DF804FBEF
:108ED00041DF7047064B10B500241C70054B1C6029
:108EE000BFF35F8F0449054800F03BF8204610BDF2
:108EF000B42B0020B82B002080260300AC2B0020D0
:108F000007B500230DF107008DF80730FFF790FA41
:108F1000F1EE103A23F09F03E1EE103ABFF35F8FBA
:108F20000A4B4022C3F884219DF80700FFF7A4FAFA
:108F300008F00AF820B103B05DF804EBFFF7C8BFF2
:108F400020BF40BF20BF03B05DF804FB00E100E09C
:108F5000836800225A60C3E904229A60DA601A60CA
:108F600070470B684A684360934208BF0023016062
:108F700008BF43607047436843B102689168526814
:108F80000B449342436004BF00234360704770B5B5
:108F9000446806460D46206818B1B36829469847CC
:108FA00018B923682B60256070BD2468F3E7436817
:108FB000186808B102681A607047436818687047FB
:108FC0004368186800B97047884203D102681A6084
:108FD0000120704703460068F4E7000010B50D4912
:108FE000A1F59472914201D800200FE08C1AE30F92
:108FF00003EBE4035B1002EBC30452F8333083420B
:1090000005D802D204F10802ECE7606810BD2146E1
:10901000E8E700BF8C2B030008B5FFF7DFFF024B2A
:10902000002808BF184608BD4F2A030043681B6884
:1090300018470000024B5B6803B11847704700BF38
:10904000C02B0020020600F00F034CBF024803486B
:10905000DB001844704700BFCC2B0020142C0020EC
:1090600008B5FFF7EFFF016009B14B68196841606F
:1090700008BD0000024B0146D3E90002104700BFC3
:10908000142C002038B5831EDBB2062B98BF1A4A79
:109090001A4D98BFD25C2B78A3F10203DBB288BFD4
:1090A0000022062B9ABF1449CB5C0023934204464E
:1090B00003D0B2B1124801F027FF022C14D0A4F162
:1090C0000800424242412B78022B0FD0A3F1080145
:1090D0004B424B41934202D052B104F019F92C702B
:1090E00038BD01F04BFFE8E70122ECE70123F1E78F
:1090F00004F004F9F3E700BF952B03008C2D00204A
:10910000242300200378052B73B504460BD12F4A86
:10911000D2F88434D2F88024D2B222B92C4ADBB2FD
:10912000052B08BF144623782BBB2A4B1D68DDB9DD
:109130008DF80450284D01A8FFF77AF92B6813B970
:10914000264B62881A8001212348FFF7BCFB9DF85B
:109150000400FFF791F9224B1B6813B1012120464F
:1091600098472B6802B070BD2B6860889B68984751
:109170002B685D68DBE71B4801A9FFF7E4FA0546A9
:109180000028EFD02368036000260DF103008DF85E
:109190000360FFF74DF9114B0F481B88026801333C
:1091A0009B1AEB803146FFF75FFBA8809DF8030018
:1091B000FFF762F901A90B48FFF7EFFA084B1B68AC
:1091C0000146002BCED020469847CBE700700240E6
:1091D000AC2B0300802D0020882D00205C2C00206B
:1091E000C02B0020682D0020FFF78CBF012805D080
:1091F000022805D030B90448FFF784BF0348FBE7D5
:109200000348F9E7704700BFA42B0300A02B03001D
:10921000A82B03000148FFF775BF00BFB02B030068
:109220002DE9F04F87B000260546884691461F4637
:1092300002966B6800225C682946012302A8A047B9
:10924000044638B98DF8060004908246564503D886
:10925000052028E00136ECE76B680DF10602D3F833
:1092600004B02946012304A8D8476B680DF1070212
:10927000D3F804B02946012304A8D8479DF8073045
:1092800043459DF8063013D14C450FD1109A136019
:109290003B7087F801806A68023B54682946BA1C13
:1092A00004A8A047002007B0BDE8F08F0134E4B265
:1092B0006A68023BD2F804B02946002204A8D847C5
:1092C0009DF806309A44C1E72DE9F7430823054687
:1092D0002D492E484FF48472FFF722FA002851D10D
:1092E0002B4804F02BF80446002847D1294B18706E
:1092F000294B1860294B014618604822284808F07D
:10930000C3FC28484822214608F0BEFC264B8DB9F4
:10931000C3E900551D72002003F0DCF918B185285F
:1093200001D0FEF79DFE214F002697F8089007F127
:10933000090810E095E8070083E80700EBE7A37849
:1093400023443946985CFFF78BFE01356378EAB217
:109350009342F4D80136F4B2A14504D904EB440495
:1093600044440025F2E70B2310488DF8043001A98E
:10937000FFF75CFE044608B103F0A8FE204603B0E8
:10938000BDE8F0830324F9E75E2C0020682D00205F
:10939000E99102008C2D0020782D00207C2D0020EA
:1093A000CC2B0020142C0020C02B0020C42B030049
:1093B00010B503F05BFF10B90823184610BD03F089
:1093C0005DFF04460028F7D1044803F0B7F90346CF
:1093D0000028F2D0FEF744FE2346EEE79C2B030064
:1093E00003F07EBE04F0C4BA4FF08043D3F83824B3
:1093F000920702D50348FFF785BED3F83824D1077A
:10940000F4D47047B52B030007B5822301A88DF86B
:109410000430FFF777FE03B05DF804FB2DE9F74356
:1094200000F1090190F80890054600270E46FBB2AE
:109430004B452AD291F801800024E3B298450AD91D
:109440008B780A190134D05CFFF7FCFD0368002B10
:10945000F3D0112028E001370331E8E7A278234454
:109460002946985CFFF7FCFD01376278FBB29A420F
:10947000F4D808F101082B7A5FFA88F4A34216D9D0
:1094800004EB440434440027EFE74FF00008F2E710
:1094900013681A68002AFBD11D6001A90B23284616
:1094A0008DF80430FFF7C2FD03B0BDE8F083014B37
:1094B000EFE700BF782D0020024B1878003818BF66
:1094C00001207047842D0020030710B5044604D402
:1094D00004F05CF8204604F019FB2046BDE810407B
:1094E00004F0BEBA04F08ABA014B1868704700BF96
:1094F000782D0020F0B50A4B0246186878B1057A3D
:109500000023861DDCB2A54201D80368F5E70133CC
:1095100003EB4307F75D9742F4D101B10C70F0BD46
:10952000782D00201146FFF781BD08B500F00F032C
:10953000082B07D8FFF786FD006818B1BDE8084082
:10954000FFF774BD102008BD38B5054B05461C68F3
:1095500004B938BD29462046FFF768FD2368F6E7C1
:10956000782D002038B5074B05461C680CB906203D
:1095700038BD29462046FFF759FD0628F8D1236853
:10958000F3E700BF782D002013B50446019103F0E6
:109590001BFF50B1064B1B78022B06D101992046C8
:1095A00002B0BDE8104003F01FBF082002B010BD9C
:1095B0008C2D002013B50446019103F005FF50B136
:1095C000064B1B78022B06D10199204602B0BDE85C
:1095D000104003F083BF082002B010BD8C2D002086
:1095E000F8B543689B6805460C46164613B92EB17C
:1095F000072002E098470628F9D0F8BD2B7AA3424D
:1096000013D9093504EB44042C446778F3B29F4224
:1096100001D80020F1E762789A4208D9A219A3780C
:10962000D05CFFF751FF0136F0E77378FFDE0023CF
:109630001B78FBE74368DB6870B505460C4603B151
:1096400098472B7AA34213D9093504EB44042C44E0
:1096500000256678EBB29E4200D870BD62789A42CF
:1096600009D96219A378D05C04F0C8F90135F1E793
:1096700000235B78FFDE00231B78FBE743681B6950
:1096800003B118471846704770B5084B1C6804B9F9
:1096900070BD267A0025E9B28E4201D82368F5E72D
:1096A00000222046FFF79CFF0135F4E7782D0020CB
:1096B00070B5084B1C6804B970BD267A0025E9B264
:1096C0008E4201D82368F5E72046FFF7B3FF013546
:1096D000F5E700BF782D002038B503780F2B04463E
:1096E00010D9A3F1800283F08003052B00D938BD87
:1096F000052AFCD8DFE812F067002C00490073004F
:109700007E00E0000F2BF2D801A252F823F000BF38
:109710001798020047980200A79802006B98020071
:1097200089980200B9980200CB980200EF960200D7
:10973000F5980200F9980200FD980200EF960200E9
:10974000EF960200EF960200EF960200C398020027
:109750006B48FFF78FFC6A48FFF7F6FE0D20FFF716
:1097600069FCFFF7A5FF00F0CCF9664B1B6853B905
:10977000654B187A00F0010003F054FD0120BDE8AC
:109780003840FFF77FBC0120F4E7FFF791FF04F0BA
:10979000CDF80020FFF776FC5C48FFF7D5FE5B486C
:1097A000FFF768FC0E20FFF745FC594B1B78023B86
:1097B000DBB2062B9BD8574AD35C002B97D0BDE871
:1097C000384001F0DBBB524B1B78062B05D003F071
:1097D000FD03052B8BD10220D1E70820CFE74C4BAE
:1097E0001B78032B83D104F0DDF800283FF47FAF12
:1097F0000420C4E7464B1B78032B05D104F0D2F8B4
:1098000010B10420FFF73EFC03F042FD00283FF4B6
:109810006EAF0620B3E73E4B1B78032B01D0082B1D
:1098200002D13D48FFF758FF0020FFF703FC354BFE
:109830001D68002D3FF45BAF28462146FFF7F6FB7D
:109840002B685D68F5E7FFF733FF00F051F9022060
:10985000FFF718FC0120FFF7EDFB2046FFF70AFC9D
:109860002046BDE83840FFF76FBE294B1B78082B18
:1098700006D10220FFF706FC03F054FD0320EAE7BF
:109880000520FFF7FFFBF9E70320FFF7D3FB234891
:10989000FFF7F0FB2148FFF757FE1D4B1B78062B07
:1098A00099D107206BE70320FFF7ECFB0220FFF7BD
:1098B000C1FB2046FFF748FE2046BDE83840FFF7D1
:1098C000D9BB0F20FFF7B6FBCAE78078FFF7BAFBDA
:1098D000214643680068984700283FF408AFA07805
:1098E00002073FF404AF03073FF501AFBDE838407E
:1098F00003F03EBE0820E5E70920E3E70A20E1E7A0
:10990000B42B03007C2D0020C02B0020B32B0300C0
:109910008C2D0020952B0300B22B0300B12B0300EC
:1099200073B5244E00230193336823B92249234899
:10993000FEF743FF30603468ECB1A58885B1E38859
:10994000B3F5006F24BF0023E380E388ADF8063051
:109950005A1C013DE280A58001A8FFF7BDFE07E08B
:109960002046FFF7B9FE14491448FEF751FF356051
:10997000012002B070BD124B18680028F9D00DF11B
:1099800003008DF80340FEF753FD0E4B0C481A8878
:10999000B2F5006F28BF1C801A88ADF80620511C54
:1099A00019800121FEF7A7FF9DF80300FEF764FD73
:1099B000D2E700BF902D0020BC2B0020682D002096
:1099C000882D00205C2C0020002070472DE9F04FEE
:1099D0002DED028B4B6885B080460C4601926BB929
:1099E0000B681B681B684BB98D683DB9C0E9005511
:1099F000284605B0BDEC028BBDE8F08F03F0B4FD46
:109A0000019BE7689F4228BF1F4604F110034FF0F7
:109A1000000A08EE103A8146564601254FB3A36866
:109A20006168BB429B4628BFBB4629B35A4609EB37
:109A3000060008F000F900236360A268E368A2EB67
:109A40000B02A3EB0B03A260E360A7EB0B075E44E2
:109A50000ABBBAF1000F03D02268126812682260B4
:109A6000DBB12368DBB963601EB1019BB34288BFE1
:109A70000025C8E90096BBE7002BDED021684B68C3
:109A800018EE100AD3F804A009EB06025B46D04793
:109A90004FF0010AD1E7002BC0D10025BEE700231B
:109AA000029321684B680022D3F804B002A8012376
:109AB000D84708B92061B1E7A3680133A360F0E794
:109AC000084B1A7882420CD0052818BF064A187035
:109AD00018BF137805481CBF23F002031370FFF76B
:109AE000FBBD7047A02D0020BC2D0020D42B03000F
:109AF00008B50020FFF7E8FCBDE808408020FFF72C
:109B0000E3BC08B50020FFF7EDFCBDE8084080206D
:109B1000FFF7E8BC38B505460C4603F0B3FDA84294
:109B200005BFD4E90001034B1020C3E9000108BFC1
:109B3000002038BDC02D00207FB5C38893421E464B
:109B400028BF164693420D46144625D9802003F0BF
:109B500035FCB4FBF0F202FB1044B4FA84F464095F
:109B600000230DF1030003948DF80330CDE9015675
:109B7000FEF75EFC01A98020FFF706FD044620B930
:109B800006498020FFF7C6FF04469DF80300FEF754
:109B900073FC204604B070BD0024E1E7082C0300EC
:109BA0002DE9F04F0B780E2B89B00D4613D8A3B1D9
:109BB000013B0D2B11D8DFE813F012001A0016003C
:109BC00010002A00F40110001000100010001A000C
:109BD000DE01E201F201852B13D00624DBE1032034
:109BE000FFF76EFFF9E7A848FEF796FE08B90024D4
:109BF000D1E1A64B0122DA65BFF36F8FBFF34F8F20
:109C0000F5E7A34B1B78032BE7D10420E8E70523F6
:109C1000A04D8DF814300DF1150003F0C7FC0023A2
:109C20002B609DF8153003F01F07032F00F25C81B5
:109C3000DFE817F00400F4005101370013F0600F63
:109C4000C3F341182DD1DB099DF8162000F09F8049
:109C5000062A0FD0082A00F08C8012BB8E490B70A8
:109C60008E4B4A701B789B0744BF03230B70022264
:109C700089490EE09DF81830022B16D0032B68D0CE
:109C8000012B0ED1BDF81B30002B00F071818449EF
:109C900012220DF11500FFF74FFF0446062C40F08D
:109CA0002B8105A8FFF75EFC13E1BDF81B60002EB9
:109CB00000F05E81092E28BF0926FFF715FC4FF042
:109CC0000909044674BB744C76493246204607F0B5
:109CD000B2FF2771A4F80290FFF7EEFB18B1E37909
:109CE00043F02003E371FFF7FFFB6F4BC3E9000470
:109CF0009E60BDF81B20DA6003A800238DF80C30AD
:109D0000FEF796FB69498020FFF754FC044620B912
:109D100067498020FFF7FEFE04469DF80C00FEF721
:109D2000ABFBBBE7CDF80C804FF0000A6368002264
:109D3000D3F804B02146012303A8D84730B9237AC9
:109D40001F442368D1441C68FFB2BBE70AF1010A33
:109D5000ECE7BDF81B30002B00F00A81BDF81910AC
:109D60009DF8170000F08EF90146002899D002787E
:109D70008FE7474A1278052A03D1474A1370012218
:109D800076E7042A8DD1444B83F80080F7E7032A55
:109D900010D0092A2CD0012A83D1BDF81730012B0D
:109DA0007FF47FAFFFF788FB60B13C4A137823F064
:109DB00002030FE0BDF81730012B7FF472AFFFF7FD
:109DC0007BFB18B90F2403F053FCE4E0334A13780B
:109DD00043F0020313702B68002B00F0C98003F0DE
:109DE00051FC044600287FF402AF03F001FCD2E0EE
:109DF000274B1B78043B012B01D90824E3E79DF88E
:109E000017302BB9FFF754FC0420FFF759FEE2E7A7
:109E1000012B57D1FFF738FC0520F6E79DF8190014
:109E200003A9FFF767FB064608B91024CBE79DF8A6
:109E30000C1005AAFFF776FB062804465CD19DF8B6
:109E4000152012F0600FBED1114B9DF80C10187840
:109E50009DF81630D2092DD07BB10A2BB3D105283D
:109E6000CBD130460192FFF709FC0B49019A0870EB
:109E70000DF11500FFF760FE2BE00528BDD1064966
:109E80000B800222F4E700BFC82D002000700240C2
:109E9000A02D0020C02D0020CC2D0020BC2D0020A6
:109EA000F42B0300D52B0300A42D0020102C03005D
:109EB000082C03000B2B86D105289ED1BDF8173046
:109EC000FF2B01D907247EE79DF817203046FFF7C6
:109ED00087FB044610E09DF81900070706D19DF89E
:109EE000153013F0600F0BD006246CE705A9FFF7BF
:109EF0001CFB06280446F2D0002C3FF46CAF62E74E
:109F00009DF81620344B9DF819401B78012A1DD06E
:109F1000032A0CD0002AE7D1052B02D026077FF4B4
:109F20006CAF204603F030FB2C490880A9E72007DE
:109F3000DAD4BDF81720002AD6D1052B02D021078C
:109F40007FF45BAF204603F013FB44E72207CBD43A
:109F5000BDF81720002AC7D1052B02D023077FF4B4
:109F60004CAF204603F012FB204603F0CFFD32E752
:109F700003F074FB3BE60020FFF7A2FD37E64FF04D
:109F80008043D3F8384414F0010401D00220F3E7F1
:109F90000120FFF795FD204609B0BDE8F08F0120B4
:109FA000EAE7C87803283FF418AE0D4E33688BB14A
:109FB0000022716832609847044600287FF403AF9E
:109FC000336823B1AB78002B7FF411AE0DE703F0BB
:109FD00045FBE0E70E24F6E6A02D0020CC2D002066
:109FE000C02D002008B1402303600148704700BF26
:109FF000CC2D002070B54FF0805286B0D2F8A8303A
:10A00000D2F8A42000926FEA83436FEA93430B4A8D
:10A010000B4E9BB20D2102A807F0D3FD02AD002428
:10A0200002A807F064FE844201D306B070BD15F8A3
:10A03000013B06F8013B0134F2E700BF182C030096
:10A040000C2E002010B50E4B53F8204023780BB98E
:10A05000A01C10BD0020FFF7C5FF013C00235A1CC7
:10A06000A15C39B9DBB201335B00DBB243F440736E
:10A070000380EEE7D3B220F813101346EFE700BFDA
:10A080007C2C0300034608B9FFF7DCBF012807D08A
:10A09000022805D0032803D0042801D0052809D1BF
:10A0A000054800EB4303587820B1044B53F82030A7
:10A0B000002BE9D100207047942C03007C2C030076
:10A0C000C36903B11847704703680022C3E91E2221
:10A0D000C3E920221A845A62DA6203F134025A6711
:10A0E0007047CA699A4210B543600CD38C6904600A
:10A0F000086F18440867D01A1C44C86100388C6186
:10A1000018BF012010BD01F1280202608B670020FA
:10A11000F8E758B90B681A7B202A09D1D3F80E202A
:10A120009A615A8A9A831A7D9A77704703207047FA
:10A1300006207047F0B504680D7A002C00F0878087
:10A14000A4F213347C2C00F222837C2C00F21F83B7
:10A15000DFE814F085008F009D00A900B500C10064
:10A16000CD00D9001D031D031D031D031D031D0389
:10A17000EF00FB001D031D031D031D031801240137
:10A1800032011D031D031D03450151017F011D0304
:10A190001D031D031D03670173017F011D031D03C3
:10A1A0001D031D031D031D038B011D031D031D0343
:10A1B0001D039F01AB01B701C301CF011D031D03A7
:10A1C000DB01E701F301FF010B021D031D031C026C
:10A1D0002802340240021D031D034C02580264028F
:10A1E00070027C021D031D031D031D031D031D03BF
:10A1F0001D031D031D031D031D031D031D031D035F
:10A200001D031D031D031D031D039B02A7021D0348
:10A210001D031D03C0021D031D031D031D03DD02DD
:10A220001D031D031D031D03DD021D031D031D036F
:10A230001D031D031D03E902F5021D031D031D037C
:10A240001D0313031D031D031D031D031303082416
:10A25000047123B940F2133303600120F0BD0AB149
:10A26000047914700B24012B04710ED84FF445733C
:10A27000F2E700240AB10679165501340E7D067105
:10A280009C4205D340F21533E6E70124F2E70024AF
:10A290000AB106791655013402269C42067103D391
:10A2A00040F21633D8E700240AB106791655013476
:10A2B00002269C42067103D340F21733CCE70024F8
:10A2C0000AB106791655013402269C42067103D361
:10A2D0004FF44673C0E700240AB1067916550134DD
:10A2E0004E7E06719C4203D340F21933B4E700243A
:10A2F0000AB106791655013400269C42067103D333
:10A3000040F21A33A8E700240AB1067916559D4E8B
:10A310000027013437709B4E3678AE4202D340F2AC
:10A320009A3399E70926A342067103D840F22133F4
:10A3300092E700240AB106791655013404269C429E
:10A34000067103D340F2223386E700240AB106796E
:10A3500016558C4E0F7A3678DFF82CC2B74204F1CE
:10A36000010440F2188201F1090706EB460607EBEB
:10A37000060E9C42BE5DCCF800E0067103D340F2AD
:10A38000273369E700240AB10679165501340026FF
:10A390009C42067103D34FF44A735DE700240AB16F
:10A3A00006791655784E36680134767806719C42E7
:10A3B00003D340F229334FE700240AB1067916553A
:10A3C000714E0F7D36683678B74204F101041ED114
:10A3D00002269C42067103D340F22D333CE7002451
:10A3E0000AB106791655013402269C42067103D340
:10A3F00040F22E3330E700240AB1067916550134B5
:10A400004E7E06719C4225D340F22F3324E78F7D88
:10A41000B74223D10A269C42067103D34FF44D73F1
:10A420001AE700240AB106791655013400269C4229
:10A43000067103D340F235330EE700240AB10679E2
:10A440001655013400269C42067103D340F2363380
:10A4500002E700240AB10679165501340026A3420A
:10A46000067103D840F23D33F6E600240AB10679BE
:10A470001655454E0F7D36683678B74204F1010413
:10A4800040F0E98005269C42067103D340F2423336
:10A49000E2E600240AB106791655013424269C42CE
:10A4A000067103D340F24333D6E600240AB106799D
:10A4B0001655013400269C42067103D34FF45173A4
:10A4C000CAE600240AB106791655013410269C42CA
:10A4D000067103D340F24533BEE600240AB1067983
:10A4E0001655013401269C42067103D340F24633CF
:10A4F000B2E600240AB106791655013405269C42BD
:10A50000067103D340F24933A6E600240AB1067966
:10A510001655013424269C42067103D340F24A3377
:10A520009AE600240AB106791655013401269C42A8
:10A53000067103D340F24B338EE600240AB106794C
:10A540001655013403269C42067103D34FF453730E
:10A5500082E600240AB10679165501348E7D067113
:10A560009C4203D340F24D3376E600240AB10679CB
:10A570001655013404269C42067108D34FF45473D7
:10A580006AE600BF1A2E00201C2E002000240AB10B
:10A5900006791655013424269C42067103D340F2F5
:10A5A000513359E600240AB10679165501340226C2
:10A5B0009C42067103D340F252334DE600240AB1A7
:10A5C00006791655013402269C42067103D340F2E7
:10A5D000533341E600240AB10679165501340526A5
:10A5E0009C42067103D340F2563335E600240AB18B
:10A5F00006791655013424269C42067103D340F295
:10A60000573329E600240AB1067916550134062687
:10A610009C42067103D34FF456731DE600240AB121
:10A620000679165501340E7D06719C4203D340F223
:10A63000593311E600240AB10679165501348E7D8E
:10A6400006719C4203D340F25A3305E600240AB156
:10A65000067916550134534E36687778524E377066
:10A66000524E00273770514E37784F4E3678B742EA
:10A6700004D34F4F3E7801363E704CE60726A34286
:10A68000067103D840F26E33E6E500240AB106797C
:10A690001655013405269C42067103D340F26F33F0
:10A6A000DAE500240AB1067916553E4E3F4F36686A
:10A6B0003F7896F801C0BC4504F1010470D996F8C2
:10A6C00002C03E449C4216F80C60067103D340F26F
:10A6D0007333C1E500240AB106791655314E0F7D5A
:10A6E00036683678B74204F1010406D103269C424D
:10A6F00006710DD34FF45E73AEE58F7DB7420BD17B
:10A7000002269C42067103D340F27D33A4E5002467
:10A710000AB10679165501344026A342067103D8C2
:10A720004FF4617398E500240AB106791655013497
:10A7300000269C42067103D340F285338CE5002449
:10A740000AB106791655174E0F7D36683678B7422E
:10A7500004F1010407D10E6A9C42367806710DD3CC
:10A7600040F28A3378E58F7DB7420BD100269C42B8
:10A77000067103D340F28F336EE500240AB10679E7
:10A7800016550134094F3E7801363E706BE70023C1
:10A790000360184662E50023CCF800301B78FFDE2A
:10A7A0000023FBE71C2E0020192E00201B2E00206A
:10A7B0001A2E0020037A012B08D9427B012A00F1CE
:10A7C0000C0306D9827B13445878704700235B78CA
:10A7D000FFDE00231B78FBE72DE9F0470B7888B0FC
:10A7E00005460E460E2B1AD8DFE813F06000400134
:10A7F0006000600019000F00AB00190019003D0156
:10A80000190060006000600060004A78D1094FEADA
:10A81000521335D013F0030303D0012B21D00624AB
:10A820001BE002F01F02012AF9D1B478062CF6D100
:10A8300005A80393FFF7D6FB03AB0093F2783179B9
:10A84000034607462846FEF7EBFC052805D0039A89
:10A850003946701CFFF770F90446204608B0BDE881
:10A86000F087B378212BDAD1B6F80720072AD6D1A2
:10A870000168701C183108B0BDE8F047FFF75CB9FB
:10A88000012BCCD1B3780768202B11D0222BC6D155
:10A89000B6F80730002BC2D13A8CB6F803303B84AF
:10A8A00002F0010203F001018A4225D10024D4E71D
:10A8B000B6F80730072BB2D14FF4E462BA81002416
:10A8C0000DF10B000E37CDE9057307948DF80B40A1
:10A8D000FDF7AEFD204605A9FEF756FE044630B949
:10A8E000684B03A9CDE90335FFF714F904469DF839
:10A8F0000B00FDF7C1FDB0E78CB2C1F10301C9B295
:10A90000FFF7DEFB002CD1D12B7A012B40F2B48073
:10A910006B7B05F10C02002B00F0B080AB7BD05CB0
:10A9200002F05AFF2846FFF745FF02F055FF07F1F6
:10A930003403C7E91E44C7E920447C62FC627B679C
:10A940008BE7037A002B00F09B80837A00F10901EA
:10A95000002B00F09380C27AB3788A5C9A42A5D02B
:10A960001B06F77809D527B1032F14BF0324002451
:10A9700073E70121FFF7A4FB98E707F0FD03012B24
:10A9800094D0002F76D10668FFF714FF3E4BB46ACF
:10A99000059306F10C0381460693C4B9F36FB467BF
:10A9A000C6E91F43F36A63B1D6E90B0106F124033C
:10A9B00083E80300F46205A94846FEF7FBFD044660
:10A9C00000E0746200212846FFF77AFB45E7D6F8DD
:10A9D00084A0706A544528BF544606F134082246C4
:10A9E000414607F028F9F36F2344C6E91F73AAEB29
:10A9F0000403B367F36A444474672BB306F1240479
:10AA000006F12C0898E8030084E80300B36F706A2D
:10AA1000F7621BB9736A002BCDD116E0B26A716F71
:10AA20009A4214D807F007F9B36AB26FC6F88030BB
:10AA3000D21AB267726F1A44726700212846FFF774
:10AA40003FFBF36A002BDDD173620024BAE71A469C
:10AA500007F0F1F8B26FB36AF2679B1AB362736AD8
:10AA600013447362D6E70321FFF72AFB2846FFF75A
:10AA70002BFB1BE70324F0E66378FFDE1B78FCE783
:10AA80005B78FAE713A10200E3A002001FB5036898
:10AA90001B8CDC0714D5037A012B13D9437B00F1FF
:10AAA0000C0493B1837BE05C9306CDE901120CBFEB
:10AAB0000123002301A90393FEF766FD04B010BD36
:10AAC0000820FBE700235B78FFDE1B78FCE70368C8
:10AAD000D3F8800070470000F7B50468238CDB07CB
:10AAE0000F4616463BD5656A002D32D1A16F9142C3
:10AAF0000ED3616F384607F09EF8A36FC4F88060EC
:10AB00009B1BA367636F33446367284603B0F0BDA4
:10AB1000C4E90972FFF74EFE134B009304F10C03D6
:10AB20000646019369B10A463846616F07F083F81B
:10AB3000A36FA26AD21AA262626AC4E91E531A44BF
:10AB4000626269463046FEF735FD002808BF922054
:10AB5000DCE7E36A2BB9C4E90B129220D6E70820A0
:10AB6000D4E71120D2E700BFE3A002004FF08053EA
:10AB7000D3F83001A0F10803584258417047000053
:10AB80004FF08053D3F83021082A06D1D3F834315E
:10AB9000032B02D8024AD05C70470020704700BFE8
:10ABA000BC2C030008B5FFF7E1FF40B14FF0804334
:10ABB0000022C3F80C21C3F81021C3F83825FFF791
:10ABC000D5FF002846D04FF08052614BD2F80414D4
:10ABD000C3F82015D2F80814C3F82415D2F80C14C1
:10ABE000C3F82815D2F81014C3F82C15D2F8141491
:10ABF000C3F83015D2F81814C3F83415D2F81C1461
:10AC0000C3F84015D2F82014C3F84415D2F8241420
:10AC1000C3F84815D2F82814C3F84C15D2F82C14F0
:10AC2000C3F85015D2F83014C3F85415D2F83414C0
:10AC3000C3F86015D2F83814C3F86415D2F83C1480
:10AC4000C3F86815D2F84014C3F86C15D2F8442440
:10AC5000C3F87025FFF794FF18B13E4B3E4AC3F886
:10AC60008C26FFF78DFF18B13C4BFB22C3F818254B
:10AC7000FFF786FF70B14FF080414FF08053D1F85D
:10AC8000E42ED3F8583222F00F0203F00F031343DF
:10AC9000C1F8E43EFFF774FF20B1314B4FF400726E
:10ACA000C3F84026FFF762FF48B14FF08043D3F866
:10ACB0000024D20744BF6FF00102C3F80024294AE0
:10ACC000D2F8883043F47003C2F88830BFF34F8F56
:10ACD000BFF36F8F4FF01023D3F80022002A03DB5D
:10ACE000D3F80432002B2EDA1F4B0122C3F80425BF
:10ACF000D3F80024002AFBD04FF010221221C2F812
:10AD00000012D3F80024002AFBD04FF010231222A7
:10AD1000C3F80422144BD3F80024002AFBD00022ED
:10AD2000C3F80425D3F80024002AFBD0BFF34F8FCB
:10AD30000C490E4BCA6802F4E0621343CB60BFF3C8
:10AD40004F8F00BFFDE70A4B0A4A1A6008BD00BFDB
:10AD500000C00040005000404881030000F0004067
:10AD60000090024000ED00E000E001400400FA0520
:10AD70002C2300200090D0034FF0A0434022C3F8C2
:10AD8000082570474FF0A0434022C3F80C257047B8
:10AD90004FF0A0434022C3F80C257047C20708B506
:10ADA00006D54FF0A0430322C3F81827FFF7F0FFA2
:10ADB000830742BF4FF0A0430C22C3F8742708BD9D
:10ADC00042DF704743DF704738B5074C051E04F17A
:10ADD000080318BF1C4623682BB11A6822605B6801
:10ADE00028469847F7E738BD282E002020B9054BA4
:10ADF00001225A70FFF7E8BF012802D1014A907082
:10AE0000F8E77047202E002020B9034B01225A702A
:10AE1000FFF7DABF704700BF202E002038B50E4C78
:10AE20002378B3B90D486360A3602361E36000F049
:10AE30004FF9054606F088F808B900F055F90123E6
:10AE40002370074BD3F800340BB10123A3702846BD
:10AE500038BD8525F5E700BF202E0020EDAD0200AE
:10AE60000000014037B50D4C00230DF107008DF8AF
:10AE70000730FDF7DDFAE368013BE360E36833B9CF
:10AE8000074BD3F8005415B900F044F9A5709DF8AC
:10AE90000700FDF7F1FA03B030BD00BF202E0020FF
:10AEA00000000140012813B50CD0032820D038B988
:10AEB000134B0122C3F88020BFF34F8FBFF36F8F76
:10AEC00002B010BD0F4C00230DF107008DF80730C4
:10AED000FDF7AEFA23780BB9FFF7A0FFE3689DF802
:10AEE00007000133E3600123A370FDF7C5FAE7E72C
:10AEF00000F0FAF802B0BDE81040FFF7B3BF00BFA2
:10AF000000E100E0202E002037B51B4C6378054699
:10AF100003F0FF029BB110B1436800209847002363
:10AF20000DF107008DF80730FDF782FA63689DF890
:10AF3000070001336360FDF79FFA03B030BD0DF1E8
:10AF400007008DF80720FDF773FA25B1A2681346B4
:10AF500053B92A60A5606368002BE7D105F0F4FFC0
:10AF600030B1FFF72DFFE1E79D42F4D01B68EFE71A
:10AF700000F0E1F8DAE700BF202E002073B50F4C97
:10AF800000230DF107008DF80730FDF751FA6368D3
:10AF9000013B6360666836B905F0D6FF054640B1EF
:10AFA000FFF710FF66709DF80700FDF765FA02B025
:10AFB00070BD00F0CDF86570F5E700BF202E0020D1
:10AFC0001FB503788DF800304368019383688DF8CE
:10AFD0000830C368054A0393054B684653F821308F
:10AFE00052F82110984705B05DF804FB342E00207C
:10AFF0003C2E00201FB503788DF800304368019384
:10B0000083688DF80830C368054A0393054B68468A
:10B0100053F8213052F82110984705B05DF804FB31
:10B02000342E00203C2E0020F0B5194B90F800C0C3
:10B03000DFF86CE043F82C20164B16460A6943F8FB
:10B040002C204B7F0EF80C300C4607460FCC89B0F5
:10B050006D460FC594E80F0085E80F003B78CDF8EA
:10B0600010C01EF803304BB1002E0B4A694608BFD2
:10B070003246381D00F0DCFE09B0F0BD002E074A54
:10B08000694608BF324607F10C0000F095FCF3E773
:10B090003C2E0020342E0020C1AF0200F5AF02008C
:10B0A000442E002010B5034653E8000F00EA0102C9
:10B0B00043E8002494F0000FF6D110BD00F1804069
:10B0C000002382B0036003680193019B02B07047C4
:10B0D000044A137923B90121106091801846704702
:10B0E00085207047482E0020084B1A68D20704D4E8
:10B0F000C02283F8002301221A604FF0804201230E
:10B10000C2F81835024A1370704700BF00E100E032
:10B11000502E00204FF0804208B50223C2F80833B9
:10B120004FF48270FFF7CAFF0123D360D2F81834BE
:10B13000DB03FBD408BD08B54FF48070FFF7BEFFFA
:10B140004FF080430122C3F804231A6008BD0000B9
:10B150004FF08042012108B54FF48070C2F8081307
:10B16000FFF7ACFF5160D2F80C3403F00113B3F1D8
:10B17000011FF8D0014B00225A7108BD482E002053
:10B180004FF0804110B5D1F8003163B14FF48070B9
:10B19000FFF794FF0D4B58790122C1F8082310B92D
:10B1A0005A711B6898474FF08042D2F8043163B15E
:10B1B0004FF48270FFF782FF0223C2F80833034B7B
:10B1C000BDE810401B680120184710BD482E002024
:10B1D00000F1804000F5C040002382B003600368A6
:10B1E0000193019B02B0704703681F2B83BF03F0DC
:10B1F0001F03036001484FF0A04070470003005058
:10B2000007B5019001A8FFF7EFFF019B00EB83005A
:10B21000D0F8003723F44033C0F80037D0F80037B7
:10B2200043EA0141C0F8001703B05DF804FB0000D9
:10B23000054B4FF0FF32072843F8202084BFC01889
:10B2400080F85820704700BF542E002038B51D49A3
:10B2500091F86A30A3BB4FF6FF70FF245A09012A08
:10B260000CBF02464FF0FF3203F01F05EA40D20741
:10B2700048BFCA1803F1010348BF82F83040302BA1
:10B28000ECD10024E0B20134FFF7D2FF0C2CF9D14D
:10B290000D4B00224A669A800C4BC02083F80603AF
:10B2A000402018604FF4BE70FFF792FF084B4FF03C
:10B2B0000040C3F80403012381F86A30104638BD0A
:10B2C0000820FCE7542E0020B82E002000E100E00A
:10B2D00000600040034B93F86A00003818BF01205B
:10B2E000704700BF542E002037B5354B1A1804465E
:10B2F00092F93000013061D18878002852D0184688
:10B30000002250F8045B013546D1181980F830202E
:10B31000002043F82200920002F1804202F5C04270
:10B320000B78D2F81055487825F499151B040005C0
:10B3300025F4F85500F4801003F44033C2F810559A
:10B3400003432002D2F8105500F47C5003432B43F2
:10B35000C2F810354A780194012A01A826D1FFF7D6
:10B3600043FF019B9A40C0F8082501A80194FFF70C
:10B370003BFF019B134903F5E073032240F82320B0
:10B3800024FA02F2012304F0070003FA00F08B5CB8
:10B3900018438854002003E00132082AB1D1042068
:10B3A00003B030BDFE2382F83030D3E7FFF71CFF37
:10B3B000019A01239340C0F80C35D6E70820EFE747
:10B3C000542E0020B82E002007B5019001A8FFF7E9
:10B3D0000BFF019A01239340C0F8083503B05DF8D4
:10B3E00004FB07B5019001A8FFF7FEFE019A0123B7
:10B3F0009340C0F80C3503B05DF804FBF7B53D4F42
:10B400003B18044693F93030002B71DA8B78C3F384
:10B410004003002B0BBF082500250C200820854287
:10B4200002D1042003B0F0BD57F82560013647D1A2
:10B4300038196EB247F8252080F8306013B97B19AF
:10B4400083F858408B785A071AD4D8073AD501A800
:10B450000194FFF7C9FE019B00EB8300D0F8003791
:10B4600023F00203C0F800372348E20804F0070C79
:10B47000012303FA0CF310F802C043EA0C038354CF
:10B4800088780B7810F0020028D0AD0005F18045D7
:10B4900005F5C0452402D5F8102522F44F3222F4D8
:10B4A0004072C5F810251B04D5F8102504F47C540F
:10B4B00003F440331C431443C5F810450020B1E7A2
:10B4C0000135ACE701A84A780194FFF78DFE019B96
:10B4D00003F5E073920040F82320C5E7083E47FAE1
:10B4E00086F797F8604044EA831387F8603099E75D
:10B4F000082097E7542E0020B82E002073B5244D65
:10B500002E18044696F93020072A1DDD083A45FA20
:10B5100082F595F860309B09032B10D1019001A8AA
:10B52000FFF762FE019BD0F81015D94001F0010130
:10B530000231204602B0BDE87040FFF761BE012B2A
:10B540000CBF02210321F4E7D3B2072B1DD89300CF
:10B5500003F1804303F5C043D3F8100540F0010028
:10B56000C3F8100502F1400040B2800080B2FFF73E
:10B570002FFE51B196F9303055F823302BB101230D
:10B5800003FA02F2034BC3F8042302B070BD00BFFC
:10B59000542E0020006000400E4B034493F93020ED
:10B5A000072A02DD0021FFF72BBED3B2072B10D8EC
:10B5B000930003F1804303F5C043D3F8101521F045
:10B5C0000101C3F81015012303FA02F2024BC3F87C
:10B5D00008237047542E00200060004007B50190FA
:10B5E00001A8FFF701FE019BD0F81005D84000F03C
:10B5F000010003B05DF804FB2DE9FF470024CDE90D
:10B600000244584D4FF48072012102F1804303F54A
:10B61000C04390B21B68012B06D1D5F804330B420E
:10B6200002D0FFF7D5FD0C430432B2F5907F4FEA0C
:10B630004101EAD14B4BD3F87C31012B11D14FF4AE
:10B64000BE70FFF7C5FD4FF0A04344F00044D3F8AF
:10B6500020250292C3F82025D3F820280392C3F8AE
:10B660002028E3B2D3B1404F00250126344210D048
:10B67000AB0003F1804303F5C043D3F81005D3F8C2
:10B68000101557F8253023B1C1F30141C0F305204F
:10B6900098470135082D4FEA4606E7D1002C59DAC4
:10B6A000314D324C324E4FF00008012716F9013B64
:10B6B0005A1C3CD0C3F3C20104A801445FFA83F9C9
:10B6C00011F8081C03F03F0203F0070307FA03F325
:10B6D00019422CD001A80192FFF786FD019B03F5CA
:10B6E000E07350F82330C3F3014ABAF1020F0CBFE4
:10B6F000032102211046FFF783FD01A80192FFF705
:10B7000073FD019B07FA03F3C0F82035AB1893F9DA
:10B71000303055F8233053B14FEA9911032904D042
:10B72000BAF1020F19D1012901D11046984708F149
:10B730000108B8F1040FB9D14FF0A043D3F8202588
:10B740000292C3F82025D4F820350393C4F820359D
:10B750001343A7D104B0BDE8F087BAF1030FE6D1D7
:10B760000229E1E700600040542E00200003005051
:10B77000B42E0020014B1B68184700BFC02E0020CC
:10B780000E4B984237B50C4602D0002003B030BDB6
:10B7900000230DF107008DF80730FCF749FE084B38
:10B7A0001D7915B901221C601A719DF80700FCF77C
:10B7B00063FE002DE9D01120E8E700BF0020004023
:10B7C000C02E0020034B984201BF034B00221A6099
:10B7D0001A71704700200040C02E00200023435003
:10B7E00082B043580193019B02B070470A4610B5DE
:10B7F0004FF48E71FFF7F2FF136A9168C95C136A08
:10B8000001331362C0F81C1510BD8B690A4610B5D0
:10B810004FF4847123B9FFF7E1FFD0F8183510BD5C
:10B82000FFF7DCFF536AD168D0F81805C854536A93
:10B8300001335362F3E700001FB501238DF8003098
:10B84000044BCDE90110D3E900126846904705B0DA
:10B850005DF804FBC82E002030B54D4DD5F80433FB
:10B860009A0585B051D5D5F82431002B4DD04FF431
:10B8700092712846FFF7B2FF4FF40173C5F8083301
:10B88000444B93F829200AB901226A6040490222F8
:10B890008DF80020D1F88024C1F8802403929A69A1
:10B8A0000292DA6801920022C3E906226846D3E9CF
:10B8B000001290473648D0F81C315BB1354A5169C7
:10B8C000136A99424DD992F82830002B49D111467C
:10B8D000FFF78CFF2E48D0F84431002B56D04FF4A0
:10B8E000A271FFF77BFF2B4B93F829200AB10122AD
:10B8F00002609A69002A49D0586AD96800229A6180
:10B9000005B0BDE83040FFF797BFD5F804335B07BB
:10B91000D0D5D5F80831002BCCD01E4C1C48214680
:10B92000FFF773FF636AA2699A42C3D1E369E168D2
:10B930004BB1A3612369E3600023606AE361636242
:10B94000FFF77AFFB6E794F829300BB901236B6053
:10B950000F4B4FF40172C3F808230023606AA36100
:10B96000EEE70B484FF48E71FFF738FF5369002B59
:10B97000B0D051690291002391688DF80030019197
:10B9800053616846D2E900139847A3E705B030BD7C
:10B9900000200040C82E00201F2886BF00F01F0096
:10B9A000044B4FF0A04300F5E070022243F8202042
:10B9B000704700BF000300502DE9F843604D90F838
:10B9C00004802C2303FB0853064693F82A300C46C8
:10B9D0009146002B40F0AF805A490068FFF7D0FE37
:10B9E0000746002840F0A9802268531C10D01F2A67
:10B9F00087BF554902F01F0313464FF0A0410120B5
:10BA0000984003F5E073C1F80805032041F82300CE
:10BA10006168481C0DD01F298BBF01F01F030B4626
:10BA200049484FF0A04003F5E0734FF0000C40F898
:10BA300023C03068A369C0F8243594F814C0637D2E
:10BA4000BCF1010F4CEA0303C0F86C35C0F81415C3
:10BA5000C0F80C252BD1A368591C0DD01F2B8BBF10
:10BA600003F01F021A4638494FF0A04102F5E07278
:10BA70004FF0000C41F822C0E1684A1C13D01F2986
:10BA800087BF314A01F01F0C8C464FF0A0424FF0A7
:10BA9000010E0EFA0CFE0CF5E07CC2F808E54FF042
:10BAA000030E42F82CE0C0F80815C0F810352C221F
:10BAB00002FB08F2AB18C3F804902369AB50B9F14C
:10BAC000000F20D04FF48E71247FFFF787FE4FF4D4
:10BAD000A2713068FFF782FE32681C4BC2F8043353
:10BAE000130B42F307326101002AC9B21EDB18486A
:10BAF000841884F800130121520903F01F0301FA8E
:10BB000003F340F8223033680422C3F800252C23C5
:10BB100003FB08530022C3E9062283F829205A6157
:10BB2000012283F82A203846BDE8F883094A03F049
:10BB30000F03D154E7E70827F5E71127F3E700BF24
:10BB4000C82E002059B802000003005080000200F7
:10BB500000E100E014ED00E02DE9F0410368057913
:10BB6000284C0022C3F800252C2202FB0542014686
:10BB70005268A2B1244AC3F808231A0B43F30733CF
:10BB8000002B0CDB02F01F005B09012282402033F6
:10BB90001E4840F82320BFF34F8FBFF36F8F0B6811
:10BBA000D3F80C05D3F81485D3F80865D3F81075CD
:10BBB0004FF0FF329042C3F81425C3F80C25C3F8A8
:10BBC0000825C3F8102501D0FFF7E6FEB8F1FF3FC6
:10BBD00002D04046FFF7E0FE7A1C02D03846FFF75D
:10BBE000DBFE731C02D03046FFF7D6FE0868FFF775
:10BBF000E9FD2C2303FB0544002384F82A3063600D
:10BC0000BDE8F081C82E00208402020000E100E0BF
:10BC10000279044B2C2101FB02335869003818BF0C
:10BC200001207047C82E00202DE9F84F064690F8F5
:10BC3000048089469246FFF7EBFF044600283CD17A
:10BC4000204F2C2508FB057B4FF48E71CBF814A0F8
:10BC5000CBF80890CBF820008BF828003068FFF76D
:10BC6000BDFD3068012383605946FFF7BFFDDBF857
:10BC700004305D461BBB3068DBF814402B6A9C42E5
:10BC800011D83368D3F81C21002AFBD00122DA60D6
:10BC900000202C2303FB087700237B61BDE8F88F8D
:10BCA00095F828303BB9D0F81C31002BF8D0594614
:10BCB000FFF79CFDE2E70F20EBE71120EEE72046BF
:10BCC000ECE700BFC82E00200023435082B0435849
:10BCD0000193019B02B070471FB501238DF800301E
:10BCE000044BCDE90110D3E900126846904705B036
:10BCF0005DF804FBF42E00207FB5434AD2F824619E
:10BD0000002E60D010464FF49271FFF7DDFF022342
:10BD10008DF80030D2F88034C2F880340393D2F822
:10BD20003C350293394BDA6801920022C3E90622BE
:10BD30006846D3E9001290473348D0F8443173B1D4
:10BD40004FF4A271FFF7C0FF304B9A693AB100225D
:10BD5000C3E90622D968D0F83C05FFF7BDFF2A48A1
:10BD6000D0F82031ABB14FF49071FFF7ADFF012354
:10BD7000C360264B5A6962B1D0F84C15029100227B
:10BD800099688DF8002001915A616846D3E9001244
:10BD900090471D48D0F858319BB14FF4AC71FFF774
:10BDA00093FF1A4B5A6962B1D0F84C1502910022E8
:10BDB00099688DF8002001915A616846D3E9001214
:10BDC000904704B070BDD2F81031002BB4D04FF4BE
:10BDD00088711046FFF778FF0C4BD2F83C05996943
:10BDE0008842A9D1DC69D96864B1D2F8005225F043
:10BDF0002005C2F800521A699C61DA60DE61FFF723
:10BE00006BFF99E79C61FAE700200040F42E0020C8
:10BE10001F2886BF00F01F00044B4FF0A04300F521
:10BE2000E070022243F82020704700BF000300505A
:10BE30002DE9F843664E90F80480242303FB086341
:10BE4000044693F820300D469146002B40F0BC800C
:10BE500060490068FFF794FC0746002840F0B68070
:10BE600029684B1C10D01F2987BF5B4A01F01F03B4
:10BE70000B464FF0A0420120984003F5E073C2F852
:10BE80000805032042F823006A68501C0DD01F2AC1
:10BE90008BBF02F01F0313464F484FF0A04003F53D
:10BEA000E0734FF0000C40F823C02068AB69C0F885
:10BEB000243595F814C06B7DBCF1010F4CEA0303E7
:10BEC000C0F86C35C0F80C15C0F814252BD1AB6840
:10BED000591C0DD01F2B8BBF03F01F021A463E4981
:10BEE0004FF0A04102F5E0724FF0000C41F822C083
:10BEF000E9684A1C13D01F2987BF374A01F01F0C7D
:10BF00008C464FF0A0424FF0010E0EFA0CFE0CF5DD
:10BF1000E07CC2F808E54FF0030E42F82CE0C0F8D0
:10BF20000815C0F81035242202FB08F2B318C3F834
:10BF300004902B69B350B9F1000F2FD04FF48871E2
:10BF40002A7FFFF7C1FE20684FF49071FFF7BCFE17
:10BF500020684FF49271FFF7B7FE20684FF4A2718A
:10BF6000FFF7B2FE4FF4AC712068FFF7ADFE236817
:10BF70001A49C3F80413190B43F307335201002B7A
:10BF8000D2B21CDB1648C51885F8002301225B09D4
:10BF900001F01F0102FA01F140F823102368082282
:10BFA000C3F80025242303FB08660023C6E90633F3
:10BFB0007361012386F820303846BDE8F883094BC9
:10BFC00001F00F015A54E9E70827F5E71127F3E7D5
:10BFD000F42E0020F9BC02000003005010034200C0
:10BFE00000E100E014ED00E02DE9F0413D4D06795F
:10BFF0000468242303FB065302465B68ABB13A4B4B
:10C00000C4F8083344F30733002B4FEA14310CDB38
:10C0100001F01F005B09012181402033334840F8C3
:10C020002310BFF34F8FBFF36F8FD4F8003223F08C
:10C030002003C4F80032242303FB06539B6933B169
:10C040004FF4A2712046FFF73FFE012363604FF4D7
:10C05000AC712046FFF738FE0123E360242303FB85
:10C060000653D4F858110029FBD0996919B1D4F8B6
:10C0700044110029F5D00023C4F800351368D3F823
:10C080000C05D3F81485D3F80815D3F810754FF0C4
:10C09000FF329042C3F80C25C3F81425C3F80825D5
:10C0A000C3F8102501D0FFF7B3FEB8F1FF3F02D06F
:10C0B0004046FFF7ADFE7A1C02D03846FFF7A8FED7
:10C0C0004B1C02D00846FFF7A3FE2046FFF77AFB81
:10C0D000242303FB0655002385F820306B60BDE860
:10C0E000F08100BFF42E00201003420000E100E0C8
:10C0F0000279044B242101FB02335869003818BF30
:10C1000001207047F42E002001F06043B3F1005F7E
:10C110002DE9F0470646884692463BD190F80490B8
:10C12000FFF7E6FF0446002836D11D4F306824256E
:10C1300005FB09754FF49071C5F814A0C5F8088087
:10C14000FFF7C2FD4FF4AC713068FFF7BDFD3368F7
:10C150006A69A968C3F84415C3F8482501229A60A2
:10C160006A68DAB9D3F82021D3F858011AB900283F
:10C17000F8D00F2007E00028FBD10122DA60D3F8C5
:10C180005821002AFBD0242303FB097700237B617D
:10C19000BDE8F0871020FBE71120F9E72046F7E71C
:10C1A000F42E00207FB503788DF8043043680293A5
:10C1B00083688DF80C30C36804930369064A8DF8D0
:10C1C0001430064B01A853F8213052F8211098473B
:10C1D00007B05DF804FB00BF182F0020282F0020B7
:10C1E000F0B50546174615F804CB124A42F82C70F4
:10C1F000114A42F82C30114B0C460FCB85B06E46DD
:10C2000086E80F002368009323798DF80530637961
:10C210008DF80630A3680293002FA389084AADF871
:10C220000C3008BF3A4663463146284600F06CF8A9
:10C2300005B0F0BD282F0020182F0020E42C0300AB
:10C24000A5C102001F2886BF054A00F01F004FF05D
:10C25000A042012303FA00F0C2F80C05704700BFAA
:10C26000000300501F2886BF054A00F01F004FF052
:10C27000A042012303FA00F0C2F80805704700BF8E
:10C280000003005010B50146C07FFF2803D08B7F0C
:10C290005BB1FFF7D7FF002308460B724B77BDE871
:10C2A000104050F8083B49681847FFF7DBFFF2E7FA
:10C2B000084BD3F8182182B052B10022C3F81821DC
:10C2C000D3F818310193019B034802B0FFF7DABF9E
:10C2D00002B07047003002405C2F00204FF0402336
:10C2E00082B0D3F8182152B10022C3F81821D3F834
:10C2F00018310193019B034802B0FFF7C3BF02B09E
:10C30000704700BF382F00202DE9F74F06796E4D9A
:10C3100001934FF0240909FB06F905EB090A93463E
:10C320009AF81C2080460C46002A40F0C980076815
:10C33000664A384652F82610FFF722FA01460028CE
:10C3400040F0C08045F809B0019BCAF80430237B57
:10C350002078012B00F29D80FFF774FF23781F2BBC
:10C3600086BF03F01F035A4A4FF0A04203F5E07363
:10C37000012042F8230094F80190B9F1FF0F00F07A
:10C380008B804846FFF75EFFB9F11F0F8BBF09F0A6
:10C390001F034B464E4A4FF0A04203F5E0730320C3
:10C3A00042F82300A378FF2B79D01F2B8BBF03F01B
:10C3B0001F021A4646484FF0A04002F5E0724FF0C7
:10C3C000040C40F822C09A46242202FB065282F84E
:10C3D0002030E078D077FF2816D02379002B61D069
:10C3E000FFF730FFE3781F2B86BF03F01F03384AA7
:10C3F0004FF0A04203F5E073032042F8230024230A
:10C4000003FB065322799A772378C7F80835A36887
:10C41000C7F80C95C7F810A5C7F82435637B227BB5
:10C42000003B18BF0123022A3FD0032A40D0012A33
:10C4300001D143F00203C7F85435A379C7F8C035DA
:10C440000723C7F8003524237343EB58B3B1D8F85A
:10C450000030627943F3073052010028C3F30733F9
:10C46000D2B228DB1B4C271887F800230122400991
:10C4700003F01F0302FA03F344F82030242303FBE4
:10C48000065500236B7701232B77084603B0BDE8E0
:10C49000F08FFFF7E7FE61E74FF0FF3982E74FF0DB
:10C4A000FF3A91E7FFF7DEFE9CE743F00403C2E7A3
:10C4B00043F00603BFE7084803F00F03C254DDE76B
:10C4C0000821E2E71121E0E7382F0020FC2C0300CF
:10C4D0000003005000E100E014ED00E02DE9F3411D
:10C4E0000779424E24237B431446F2180D46517FB0
:10C4F0008046002978D1F35823B114F0140F04BFFB
:10C500000123537795E80F004FF0240C0CFB076CC8
:10C510000CF10C0E8EE80F009CF81F00FF2804D0D1
:10C520009CF81E30C3B1FFF79DFE296821B101F0D0
:10C530006043B3F1005F06D1AA6882B102F06043A4
:10C54000B3F1005F0BD0242303FB0766002373774E
:10C55000102002B0BDE8F081FFF774FEE5E7D8F8DF
:10C5600000306868C3F84415C3F84805E968C3F8A3
:10C5700034250022C3F83815C3F81821D3F8182140
:10C580000192019A14F0010218BF0122C3F850254C
:10C5900014F0020218BF0122C3F8402522075CBF35
:10C5A00001221A6124227A43B25892B9D3F8182191
:10C5B000002AFBD0242303FB0766F07FFF2803D06B
:10C5C000B47F1CB1FFF73EFE0020C2E7FFF74AFE32
:10C5D000FAE714F004004FF0400202D0C3F8082339
:10C5E000F2E7C3F80423B4E71120B2E7382F0020A4
:10C5F00036DF70474DDF70474EDF70474FDF7047C3
:10C6000050DF704710B50446FFF7F6FF40B92046EB
:10C61000FFF7F0FF20B92046BDE81040FFF7EEBF5E
:10C6200010BD012810B5044602D100F0BBF88047C8
:10C6300000F0BEF8034668B10A2C07D00B2C07D0D7
:10C64000092C07D10220BDE8104018470020FAE766
:10C650000120F8E710BD0000012813B5044603D0FF
:10C6600003281CD002B010BD00230DF107008DF887
:10C670000730FBF7DDFE00F095F810B12046FFF71C
:10C68000B7FF9DF80700FBF7F7FE00F091F80028D0
:10C69000E8D0012002B0BDE81040FFF7B3BF0C4B5B
:10C6A000C02283F8002301221A6000F07BF820B139
:10C6B0004FF080430422C3F8042300F079F80028E7
:10C6C000D0D04FF080434FF46072C3F80423C9E721
:10C6D00000E100E038B50A4D2B78044663B904F058
:10C6E00033FC58B90748002C18BF204600F066F804
:10C6F00008B901232B7038BD8520FCE70820FAE734
:10C70000802F0020042D030013B500240DF1070035
:10C710008DF80740FBF78CFE04F016FC58B120465C
:10C72000FFF770FF9DF80700FBF7A6FE02B0BDE81B
:10C73000104000F079B800F070F8F3E71FB50190F1
:10C74000FFF7E2FF019800F05BF804F0FDFB044600
:10C75000A0B10120FFF756FF044660B903A8FFF718
:10C760004FFF044638B9039BDB0704D500F020F8DF
:10C77000034620469847204604B010BD00F046F816
:10C78000F9E700F1804382B01A68002A14BF012043
:10C79000002004D000221A601B680193019B02B0A4
:10C7A00070470000014B1868704700BF842F0020BD
:10C7B000014B1868704700BF8C2F00200E4A137879
:10C7C000C3B903784FF08041C3F34003C1F880350B
:10C7D000037803F00103C1F87835084B1968C907DD
:10C7E00004D4C02183F800130121196001231370C0
:10C7F0000020704785207047902F002000E100E066
:10C80000014B02681A6070478C2F00204FF0804364
:10C810004FF46072C3F8042370474FF080434FF425
:10C820006072C3F808237047014B00221A607047FA
:10C830008C2F00204FF0804310B5D3F804436207DB
:10C8400007D54FF48470FFF79CFF10B11E4B1B6897
:10C850009847A30608D54FF48A70FFF792FF18B1E6
:10C860001A4B00201B689847600608D54FF48C705F
:10C87000FFF787FF18B1154B01201B689847210669
:10C8800008D54FF48E70FFF77CFF18B1104B0020D5
:10C890001B689847E20508D54FF49070FFF771FFC9
:10C8A00018B10B4B01201B689847A3050AD54FF41C
:10C8B0009270FFF766FF28B1054BBDE810401B687A
:10C8C0000220184710BD00BF842F0020882F0020B1
:10C8D0008C2F002008B5FFF7ADFFBDE80840FEF73C
:10C8E0004FBC0000020713D400F00F0310F0800FBC
:10C8F000084A0BBF03F5887303F5847302EB8303C7
:10C9000052F8230008BF5868431E584258417047E8
:10C91000002070470070024010F0080F074B06D04F
:10C92000D3F8C00410F4803F18BF0020704700F017
:10C930000F0000F5947053F820007047007002401B
:10C940004FF08053D3F83001A0F10803584258410A
:10C95000704700004FF08053D3F83021082A06D1E9
:10C96000D3F83431032B04D8034AD05C704700203D
:10C9700070470120704700BF0A2D030030B54C6896
:10C980000D689C4229BFC0E900530021E41AED184C
:10C9900032BFC0E900514C600D60934203D1201EAC
:10C9A00018BF012030BD0020FCE74B6810B59A424B
:10C9B0000C6828BF1A46C0E90042981A0B68486004
:10C9C0001A4400380A6018BF012010BD30B54C6809
:10C9D0000B68A24228BF2246002A14BF1D4600252C
:10C9E000C0E90052A4EB02041A444C600A6014BF70
:10C9F0000120002030BD0000054B10F0800FA3F196
:10CA0000900208BF134600F00F0003EB00107047C0
:10CA10000431002010F0800F14BF0023102300F019
:10CA20000F0018447047000008B5FFF789FF18B1E0
:10CA3000034B0022C3F81C2C024B00221A7008BDC5
:10CA400000700240922F002007B5094A002313709E
:10CA5000084AADF8053013708DF8073001238DF8C2
:10CA60000430054B01A81B68984703B05DF804FB30
:10CA7000912F002098310020943100207047000051
:10CA80004B68934228BF134670B51D46094B0C46B0
:10CA900006462A460968184605F0CDF8C6E900059D
:10CAA00060682268401B60602A440038226018BF1A
:10CAB000012070BD9C3100204B68934228BF134673
:10CAC00070B506460D461C468BB10A4B09682246D6
:10CAD000184605F0B0F830606B6874601B1B6B6023
