:020000022000DC
:1070000000000420757302005D7302005F730200CC
:1070100061730200637302006573020000000000E8
:107020000000000000000000000000006773020084
:1070300069730200000000006B7302006D730200B0
:10704000BD3203006F7302004D0903001566030093
:10705000212B03006F730200450803006F730200C9
:107060006F7302006F7302006F7302006F73020090
:107070006F730200397103006F7302006F730200B7
:107080006F730200DD9A02006F7302006F730200DB
:107090006F7302006F730200E5E703006F73020075
:1070A0006F7302006F7302006F7302006F73020050
:1070B0006F7302006F730200000000000000000008
:1070C0006F7302006F7302006F730200352B0300B1
:1070D0006F7302006F7302006F730200754F03003D
:1070E0006F7302006F7302006F73020000000000F4
:1070F000000000006F730200000000006F730200C8
:10710000000000000000000000000000000000007F
:10711000000000000000000000000000000000006F
:10712000000000000000000000000000000000005F
:10713000000000000000000000000000000000004F
:10714000000000000000000000000000000000003F
:10715000000000000000000000000000000000002F
:10716000000000000000000000000000000000001F
:10717000000000000000000000000000000000000F
:1071800000000000000000000000000000000000FF
:1071900000000000000000000000000000000000EF
:1071A00000000000000000000000000000000000DF
:1071B00000000000000000000000000000000000CF
:1071C00000000000000000000000000000000000BF
:1071D00000000000000000000000000000000000AF
:1071E000000000000000000000000000000000009F
:1071F000000000000000000000000000000000008F
:10720000354936480A1A02D0072291438D4634493F
:1072100034480A1A06D00722914381F309880222D2
:1072200082F3148830483149314A00F044F831483B
:107230003149324A00F03FF831483249324A00F0D1
:107240003AF832483249334A00F035F83248334987
:10725000334A00F030F833483349344A00F02BF811
:1072600033483449344A00F026F83448344900227F
:1072700000F02CF833483449002200F027F8334856
:107280003349091A082902DB002202604160314AB1
:1072900090471F481F49884205D00268043003B454
:1072A000904703BCF7E700208646EC46002000210B
:1072B000294A9047FEE7884207D0521A05D0037842
:1072C00001300B700131013AF9D17047884202D088
:1072D00002700130FAE770470000042000E003204C
:1072E0000000042000000420040804000023002003
:1072F000A0250020D0730200D07302001CF503000B
:1073000004080400002300200023002084F603006A
:1073100084F6030084F6030084F6030084F6030079
:1073200084F6030084F6030084F6030003080400D7
:10733000A40A0400A0250020A0250020A0250020EC
:10734000FC420020FC420020FC420020FC420020C5
:10735000FC6200209D730200417C0300FEE7FEE713
:10736000FEE7FEE7FEE7FEE7FEE7FEE7FEE7FEE7F5
:1073700000F002B8FFF7FCBF0F484FF00701884349
:1073800085460E4880470E48016841F4700101604F
:10739000BFF34F8FBFF36F8FFFF732BF09480A4922
:1073A0000A4A884207D0521A05D0037801300B7080
:1073B0000131013AF9D17047000004208DEC020040
:1073C00088ED00E084F60300002300200023002065
:1073D00000B5A1B00590049103920293049803F0C4
:1073E00059FA039B1593029B1693002317930023CE
:1073F0008DF8603000231993229B1A9300231F936A
:107400000FA91F9B0822049803F002FB08231F9377
:10741000119B1293BDF84030ADF84C30BDF84230AE
:10742000ADF84E3000238DF851309DF83C3003F01C
:107430000303DBB2012B26D10F9BC3F395231C93CF
:107440009DF83C30C3F3C203DBB28DF85030BDF879
:107450003C30C3F38313DBB21B931B9B9A0009A937
:107460001F9B049803F0D4FA1B9B9B001F9A1344A4
:107470001F9312AA09A915AB009313461B9A1C98D7
:1074800000F09EFF2FE09DF83C3003F00303DBB2D9
:10749000022B28D1BDF83E30C3F389139BB21E9353
:1074A0009DF83C30C3F3C203DBB28DF850301E9B15
:1074B000082B28BF08231D9307A91F9B1D9A04981A
:1074C00003F0A6FA1F9A1D9B13441F931E9A1D9B3F
:1074D000D31A1E9315AB12AA07A81D9901F012F832
:1074E0001E9B002BE3D1049803F0E3F900BF21B009
:1074F0005DF804FB00B583B00190019B1B781A4630
:107500000C4B9B5C002B05D0019B043318460AF002
:107510002DFC0BE0019B1B781A46064B9B5C002B55
:1075200004D1019B0C33184609F00EFE00BF03B0D6
:107530005DF804FBF42E002000B587B003900291A3
:1075400013468DF8073000230593039B1B781A46DA
:10755000114B9B5C002B09D0039B04339DF8072043
:10756000029918460AF064FC05900FE0039B1B7813
:107570001A46094B9B5C002B08D1039B0C339DF8EA
:1075800007200299184609F057FE0590059B1846FA
:1075900007B05DF804FB00BFF42E002082B001901C
:1075A0000091034B01221A7000BF02B0704700BF68
:1075B000E025002030B58DB003468DF80730194B1B
:1075C00002AC1D460FCD0FC495E80F0084E80F00F4
:1075D0001F2302934FF0FF3303934FF0FF330493C5
:1075E0004FF0FF3305934FF0EB7308939DF807308E
:1075F000002B01D00C4A00E0002202AB19460B48D8
:1076000007F0CAFF0B900B9B0A930A9B002B02D03A
:107610000A9801F0FBFA064A9DF80730137000BF84
:107620000DB030BD84F603009D75020000230020DC
:10763000E125002000B583B001238DF807309DF8C7
:1076400007301846FFF7B6FF00BF03B05DF804FB34
:1076500000B589B0039002910192019B8DF81F3013
:10766000114B00221A709DF81F301A4602990F48DC
:10767000FFF762FF0690069B0593059B002B02D047
:10768000059801F0C3FA00BF094B1B78002B07D007
:10769000054B1B78DBB283F00103DBB2002BF3D187
:1076A00000BF09B05DF804FBE025002000230020A6
:1076B000E125002000B585B003900291054B0093B1
:1076C0004023054A02990398FFF782FE00BF05B0E8
:1076D0005DF804FB51760200A025002082B00190E5
:1076E00000BF02B07047000000B583B001900548AC
:1076F000FFF700FF0020FFF75DFF00BF03B05DF85C
:1077000004FB00BF0023002082B00190019BDB68D6
:1077100001225A7100BF02B07047000000B583B06B
:107720004FF0FF330193FFF785FF0421054800F078
:1077300063FD01900348FFF7E7FF00BF03B05DF86A
:1077400004FB00BF74F6030000B583B00190009104
:10775000019B1B681B6800990198984700BF03B004
:107760005DF804FB00B583B00190019B1B685B686A
:107770000198984700BF03B05DF804FB00B583B0E3
:107780000190019B1B689B680198984700BF03B05C
:107790005DF804FB82B001900B468DF80330019B2D
:1077A000DB689DF803201A7100BF02B0704782B0F9
:1077B0000190019BDB681B79184602B0704782B0CC
:1077C0000190019BDB6801225A7100BF02B0704733
:1077D00082B00190019BDB685B79184602B070476C
:1077E00000B585B0019000910C4B00221A700C4836
:1077F00002F0B4FF0390039B002B01D0039B08E031
:10780000084803F093F9084A084BD31ADB0802939F
:107810000023184605B05DF804FB00BF4C2700208C
:10782000A0F50300C4F6030074F60300B4F50300EA
:10783000024A034BD31ADB081846704774F603005C
:10784000B4F5030000B587B001900B468DF8033006
:107850009DF80330002B1FD0FFF7EAFF04900023B0
:10786000059313E0059B9B000E4A13440393039B6F
:107870001B881A46019B1B689A4204D1019B059AFA
:107880001A60002309E0059B01330593059A049BC8
:107890009A42E7D3052300E00023184607B05DF8BD
:1078A00004FB00BF0023002000B585B001900B460B
:1078B0008DF803309DF8032001AB11461846FFF701
:1078C000C1FF0346002B07D1019BDB00054A13448F
:1078D0000393039B1B6800E00023184605B05DF886
:1078E00004FB00BFB4F5030084B001900B468DF893
:1078F0000330019BDB00174A134402939DF80330C9
:10790000013B032B1CD801A252F823F01D79020081
:10791000257902002D7902003779020002238DF8C3
:107920000F3011E004238DF80F300DE0029B1B791E
:107930008DF80F3008E0029B5B798DF80F3003E083
:1079400000238DF80F3000BF9DF80F30184604B0AB
:10795000704700BFB4F5030084B00190009100238C
:107960008DF80F30019B1B7803F00403DBB2002B72
:1079700024D0019B1B78C3F30103DBB2012B02D09F
:10798000022B0CD017E0009B1B68019A1288C2F3EF
:107990008312D2B213449A1C009B1A600BE0009B26
:1079A0001B68019A5288C2F3891292B213449A1C3E
:1079B000009B1A6000BF01238DF80F309DF80F3037
:1079C000184604B07047000000B58BB00023ADF836
:1079D00026303B4802F084FA3A4802F081FA3A4BEA
:1079E0009B680493394B1B680693049A069B1340CB
:1079F00002339B00344A13440433089304AB194602
:107A00000898FFF7A9FF0346002B09D0049A069BAC
:107A1000134002339B002C4A134404330893EDE7D0
:107A200000BF0023079311E0049B5A1C0492069A9E
:107A30001340079A920001A90A44234902339B008C
:107A40000B445B681360079B01330793079B012B73
:107A5000EAD99DF80430C3F30103DBB2012B10D047
:107A6000022B1CD1BDF80A30ADF82630BDF8063027
:107A7000C3F389139BB203339A08049B1344049302
:107A80000EE0BDF80A30ADF82630BDF80430C3F37F
:107A90008313DBB21A46049B1344049300E000BF37
:107AA000084802F029FA0590059B002B02D0049BA0
:107AB000054A9360BDF8263018460BB05DF804FB0C
:107AC000642B0020602B00204C2700201C2300206A
:107AD00000B585B00021074802F059F90390039BD7
:107AE0000293029B83F310030193019B184605B098
:107AF0005DF804FB682B002000B589B0039002916B
:107B000001920093039B1B0C0693FFF7E1FF079084
:107B1000079B1904009B5A1C0A9B1340069A0A43B0
:107B20001B4902339B000B445A60009A0A9B134086
:107B300002339B00164A134404330593039B03F05E
:107B40000703D9B2059A137861F3C5031370019B3B
:107B500003F00F03D9B2059A138861F389131380D8
:107B6000029BC3F31501059A136861F39F23136009
:107B7000059A1378012161F301031370059A1378B4
:107B80006FF38203137000BF09B05DF804FB00BF00
:107B90004C27002000B58DB00390029113468DF85C
:107BA0000730039B02330A9301238DF8273000230B
:107BB0008DF81B300DF11B03184601F029FC404BDA
:107BC0005A68029B1A603F4B1A683D4B99683C4BC0
:107BD0005B68CB1A134401330B9314E001213A483C
:107BE00002F034F9FFF7F0FE07900799364802F0EB
:107BF0002DF9344B1A68324B9968314B5B68CB1ABC
:107C0000134401330B930A9A0B9B9A42E6D89DF8D2
:107C10002730002B48D0002305939DF80730002B18
:107C200017D09DF81430012262F301038DF814304F
:107C30009DF8143043F004038DF81430039B03F0D7
:107C40000F03DAB2BDF8143062F38913ADF81430C3
:107C500016E09DF81430022262F301038DF814300F
:107C60009DF8143043F004038DF81430039BC3F3E4
:107C700009039AB2BDF8163062F38F13ADF81630CF
:107C80000F4B5A680F4B1B68134002339B000C4A82
:107C9000134404330893059A089B1A60084B5A68EA
:107CA0000A9B1344064A53609DF81B30184601F0A6
:107CB000B9FB9DF8273018460DB05DF804FB00BFF6
:107CC0004C2700201C230020682B002000B58BB01F
:107CD00005900491039202931F4B1B68079306AB18
:107CE000012219460298FFF755FF0346002B24D0C6
:107CF000069B023309930023089311E0089B9B0025
:107D0000039A1A44099B591C099107990B40126860
:107D1000124902339B000B445A60089B01330893BD
:107D2000089A029B9A42E9D3069A079B009313464E
:107D3000029A04990598FFF7DFFE084B1B78002B89
:107D400005D000BF00F04EF80346002BFAD100BF6B
:107D50000BB05DF804FB00BF1C2300204C27002063
:107D600000B583B001900091002300220099019892
:107D7000FFF7ACFF00BF03B05DF804FB00B587B0B0
:107D8000039002910192019B059305AA0123029998
:107D90000398FFF79BFF00BF07B05DF804FB00B539
:107DA00087B00390029101920093019B0493009B82
:107DB000059304AA022302990398FFF787FF00BFE7
:107DC00007B05DF804FB0000054B9A68044B5B6844
:107DD0009A420CBF01230023DBB21846704700BF54
:107DE0004C27002000B599B0FFF7EEFF0346002BAB
:107DF00001D00023C0E19B4B0022C3F81824BFF33D
:107E00004F8F00BF974B9B680493974B1B68109351
:107E1000049A109B134002339B00924A134404338C
:107E20001193002317930023169300230F9304ABA1
:107E300019461198FFF790FD0346002B19D0894B86
:107E4000D3F81834002B14D1864B5A68049B9A42FD
:107E500005D8844B5B68834A936000238CE1049AC5
:107E6000109B134002339B007E4A1344043311934A
:107E7000DDE70023159311E0049B5A1C0492109A2D
:107E80001340159A920001A90A44764902339B00D7
:107E90000B445B681360159B01331593159B012BF5
:107EA000EAD99DF8043003F00303DBB2022B40F063
:107EB0009C80BDF80630C3F389139BB20D93BDF8C7
:107EC0000630C3F389139BB2502B28BF50239BB2BB
:107ED0000C930C9BC3F309039AB2BDF8063062F30E
:107EE0008F13ADF806300C9B08330B939DF80430CC
:107EF000C3F3C203DBB20F930B995C4802F039FC69
:107F00001790179B002B00F0D380179802F0C2FC4B
:107F100001A9169B0822179802F066FD169B0833EC
:107F20001693049BDA43109B134001339B000A9382
:107F30000C9A0A9B9A4242D90A9B002B08D0049AB9
:107F4000109B134002339B00464A1344043300E065
:107F5000474B08930A9B002B02D00A9BDBB201E03F
:107F60000C9BDBB28DF81F300A9B002B01D0404BDD
:107F700000E0002306930A9B002B06D00C9BDAB28C
:107F80000A9BDBB2D31ADBB200E000238DF8173076
:107F90009DF81F20169B0899179802F025FD9DF863
:107FA0001F30169A13441693069B002B16D09DF88B
:107FB0001720169B0699179802F016FD0EE0049AFA
:107FC000109B134002339B00264A13440433099349
:107FD000169B0C9A0999179802F006FD0D9B033326
:107FE0009A08049B1344049362E09DF8043003F064
:107FF0000303DBB2012B5BD1BDF80430C3F3831361
:10800000DBB2062B28BF0623DAB2BDF8043062F3D8
:108010008913ADF80430BDF80430C3F38313DBB229
:1080200002330E939DF80430C3F3C203DBB20F9307
:108030000E9B9B0019460D4802F09BFB1790179B67
:10804000002B35D0179802F025FC01A9169B0822B9
:10805000179802F0C9FC169B08331693002315935A
:108060001DE000BF4C2700201C230020A0F50300CA
:1080700058270020049B5A1C0492109A1340023384
:108080009B003F4A1344191D169B0422179802F0C7
:10809000ABFC169B04331693159B01331593BDF867
:1080A0000430C3F38313DBB21A46159B9342E1D32A
:1080B000179B002B40D0324BD3F810341493304B25
:1080C000D3F81834002B1BD0179802F0F2FB4DE0C8
:1080D00000238DF84F301498FFF77AFB0346002BEE
:1080E00002D001238DF84F309DF84F30002B03D084
:1080F00017991498FFF728FB149BDB681B681493EF
:10810000149B002BE4D1179802F0D3FB00238DF8C9
:1081100003300DF10303184601F07AF9184BD3F838
:108120001834002B02D1049B154A93609DF803304C
:10813000184601F077F919E0114BD3F81034129377
:1081400006E01298FFF71AFB129BDB681B6812937C
:10815000129B002BF5D10B4A0B4BD31ADB081B04E7
:1081600043F0020309491846FFF7FAFDFFF72CFE1A
:10817000034683F00103DBB2184619B05DF804FB37
:108180004C270020FCF50300B4F50300D4F60300EF
:1081900000B585B00023039323E0164BD3F81034C9
:1081A000029301238DF807300FE00298FFF7FFFAE2
:1081B00003461A46039B934203D100238DF80730F0
:1081C00006E0029BDB681B680293029B002BECD14C
:1081D0009DF80730002B01D0039B07E0039B013380
:1081E0000393039B092BD8DD4FF0FF33184605B0EE
:1081F0005DF804FB4C27002000B585B001900B46CC
:108200008DF80330FFF7C4FF0390039BB3F1FF3FEA
:1082100001D1039B22E0039BDBB219460198FFF7D3
:10822000B9FA104BD3F81034002B08D10D4A019B3A
:10823000C2F81034019BDB6800221A600DE0094B84
:10824000D3F81034DA68019BDB6812681A60054BBA
:10825000D3F81034DB68019A1A60039B184605B006
:108260005DF804FB4C27002000B583B00C4BD3F81D
:10827000103401930A4B01221A7009E00198FFF7AC
:108280009EFA0198FFF76EFA019BDB681B68019369
:10829000019B002BF2D100BF00BF03B05DF804FBCF
:1082A0004C27002082B00190009100BF02B07047BF
:1082B00010B584B003900291039BDB88002B0AD099
:1082C000039BDB881A461F4B009313461E4A1F4927
:1082D000029801F0DFFE039B1B7A052B2ED0039B37
:1082E0005B7A002B12D0039B9B881A46039B1B7A58
:1082F00019461046FFF7F8FA03461A46144B53F88E
:1083000022301A461349029801F0C4FE039B1B68F1
:1083100019460298FFF7C6FF039B1B7A1A460E4BBD
:1083200053F82240039B9B8800211846FFF7BCFAB4
:10833000034622460949029801F0ACFE00BF04B092
:1083400010BD00BF08F7030018F7030050F7030043
:108350003423002068F70300202300206CF703007B
:1083600000B585B00390029113468DF80730039B4A
:108370001B7A052B0FD0039B5B7A002B06D00D4B8D
:108380001B681A460C49029801F084FE0B490298BA
:1083900001F080FE07E09DF80730002B03D007496D
:1083A000029801F077FE029801F05CFE00BF05B074
:1083B0005DF804FB3423002068F7030078F703001E
:1083C00030B58BB007900691059204930E9B1B7BF2
:1083D0008DF827300E9B00221A730E990498FFF730
:1083E00067FF059B062B7FD801A252F823F000BF40
:1083F0000D84020017840200278402003B840200DF
:108400005984020081840200B184020007990E9809
:1084100001F040FE69E0069B1B681A4607990E981A
:1084200001F038FE61E0069B1A68069B04331B6866
:1084300007990E9801F02EFE57E0069B1A68069BDE
:1084400004331968069B08331B6800930B46079991
:108450000E9801F01FFE48E0069B1968069B043346
:108460001868069B08331B68069A0C321268019242
:10847000009303460A4607990E9801F00BFE34E07C
:10848000069B1868069B04331C68069B08331B6810
:10849000069A0C321268069910310968029101920D
:1084A00000932346024607990E9801F0F3FD1CE065
:1084B000069B1C68069B04331D68069B08331B68DB
:1084C000069A0C3212680699103109680698143021
:1084D000006803900291019200932B46224607996F
:1084E0000E9801F0D7FD00E000BF00220E9904981D
:1084F000FFF736FF0E9B9DF827201A7300BF0BB0C5
:1085000030BD00BF00B587B0039002910192009387
:10851000029B082B60D8009B1B7B8DF81330009BBF
:1085200000221A7300990198FFF7C2FE00230593F9
:1085300014E0059A029B9A4209D2039A059B1344C0
:108540001B781A462649009801F0A4FD03E025494E
:10855000009801F09FFD059B01330593059B072BB8
:10856000E7D92149009801F095FD0023059326E005
:10857000059A029B9A421BD2039A059B13441B78CF
:108580008DF812309DF812307E2B0AD89DF81230EB
:10859000184616F0C3FB0346002B02D09DF812309C
:1085A00000E02E231A461149009801F073FD03E004
:1085B0000F49009801F06EFD059B01330593059B63
:1085C000072BD5D9012200990198FFF7C9FE009B1E
:1085D0009DF813201A7300E000BF07B05DF804FB9C
:1085E0007CF7030084F7030088F703008CF703008F
:1085F00090F7030084B003468DF807309DF80730EC
:108600005B08DBB21A460D4B9B5C8DF80F309DF872
:10861000073003F00103002B04D09DF80F301B0935
:10862000DBB204E09DF80F3003F00F03DBB28DF8EE
:108630000E309DF80E30184604B07047A02B002075
:1086400084B003460A468DF8073013468DF806308D
:108650009DF8073003F00103002B01D00F2300E049
:10866000F0238DF80F309DF8073003F00103002B45
:1086700004D09DF806301B01DBB201E09DF8063006
:108680008DF80E309DF807305B08DBB21A46114BAF
:108690009A5C9DF807305B08DBB219469DF80F30F5
:1086A0001340DAB20B4B5A549DF807305B08DBB22B
:1086B0001A46084B9A5C9DF807305B08DBB21946F6
:1086C0009DF80E301343DAB2024B5A5400BF04B087
:1086D000704700BFA02B002084B003468DF8073000
:1086E0000023039310E00D4B1A68039BDB00134437
:1086F0000293029B1B789DF807209A4201D1029BAE
:1087000009E0039B01330393054B1B781A46039B37
:108710009342E8DB0023184604B070476C2B00201E
:10872000702B002000B585B003460A468DF807304F
:1087300013468DF806309DF807301846FFF7CCFF3A
:108740000390039B002B0BD0039B5B68002B07D08F
:10875000039B5B689DF806109DF80720104698471C
:1087600000BF05B05DF804FB2DE9F04F87B003466C
:108770000A468DF80F3013468DF80E309DF80F30F5
:108780001846FFF737FF0346042B00F2C28001A210
:1087900052F823F0A98702001D88020039880200E0
:1087A000698802007F8802009DF80E30002B00F0DF
:1087B000AD809DF80F3001211846FFF741FF0023DF
:1087C0008DF817300DF11703184600F021FE9DF8C3
:1087D0000F104FF001024FF00003A1F12004C1F18E
:1087E000200003FA01F702FA04F4274322FA00F00A
:1087F000074302FA01F6494BD3E9002346EA020196
:1088000000913B430193454BDDE90012C3E900129F
:108810009DF81730184600F005FE77E09DF80E3001
:10882000002B01D0022200E000229DF80F301146FB
:108830001846FFF705FF6CE09DF80E30002B0CD0BA
:108840009DF80F3003211846FFF7FAFE9DF80F3010
:1088500001211846FFF766FF5BE09DF80F3001210C
:108860001846FFF7EDFE54E09DF80E30002B4FD177
:108870009DF80F3004211846FFF7E2FE48E09DF80E
:108880000E30002B06D09DF80F3003211846FFF75D
:10889000D7FE3EE09DF80F3000211846FFF7D0FECE
:1088A0009DF80F3000211846FFF73CFF00238DF89C
:1088B00016300DF11603184600F0AAFD9DF80F10B2
:1088C0004FF001024FF00003A1F12006C1F120009A
:1088D00003FA01F502FA06F6354322FA00F00543E1
:1088E00002FA01F46FEA04086FEA05090B4BD3E9B9
:1088F000002308EA020A09EA030B084BC3E900ABAC
:108900009DF81630184600F08DFD02E000BF00E033
:1089100000BF00BF07B0BDE8F08F00BF982B00205C
:1089200000B583B00648074B1B685B080022194658
:1089300000F0B1FC019000BF03B05DF804FB00BF84
:10894000782B0020742B002000B587B00190002305
:10895000059328E01C4B1A68059BDB001344049325
:10896000049B1B78184607F0CBFE03468DF80F30AA
:10897000049B5B78012B0CBF01230023DBB21A465A
:108980009DF80F309A420CBF012300238DF80E3062
:10899000049B1B789DF80E2011461846FFF7E4FE55
:1089A000059B01330593094B1B781A46059B93429F
:1089B000D0DB074BD3E90023134301D0FFF7B0FF0F
:1089C00000BF07B05DF804FB6C2B0020702B00206B
:1089D000982B002000B585B001900B468DF8033030
:1089E000019BDBB21846FFF777FE0390039B1B78D1
:1089F000184607F085FE03468DF80B30039B5B7825
:108A0000012B0CBF01230023DBB21A469DF80B306B
:108A10009A420CBF012300238DF80A309DF80A30DA
:108A2000002B06D0054BD3E90023134301D1FFF7F8
:108A300077FF00BF05B05DF804FB00BF982B002056
:108A400000B58BB003900B4601928DF80B30019B63
:108A5000092B01D8072367E007F0E4FC034683F005
:108A60000103DBB2002B09D007F078FC0990099BC9
:108A70000893089B002B01D0089B55E02C4A039BD0
:108A800013602C4A9DF80B3013702B4A019B136026
:108A900020220021294816F0C1F929494FF000028F
:108AA0004FF00003C1E9002331E09DF80B30DB00FB
:108AB000039A1344079303238DF8143000238DF891
:108AC00015309DF816306FF300038DF816309DF8C1
:108AD00016306FF341038DF816309DF816306FF3A2
:108AE00082038DF81630079B9B788DF81530079B15
:108AF0001B78184605AB134A194607F0FDFC099090
:108B0000099B0693069B002B01D0069B0CE09DF869
:108B10000B305A1E8DF80B20002BC6D10A4A0021BB
:108B20000A4800F099FB034618460BB05DF804FBB9
:108B30006C2B0020702B0020742B0020A02B002019
:108B4000982B0020D589020049890200A0F7030074
:108B500000B583B0002301930CE00C4B1A68019B15
:108B6000DB0013441B780121184607F035FD019BFB
:108B700001330193064B1B781A46019B9342ECD3B9
:108B80000023184603B05DF804FB00BF6C2B0020E7
:108B9000702B002000B583B0002301930BE0174B2E
:108BA0001A68019BDB0013441B78184607F080FD10
:108BB000019B01330193124B1B781A46019B934290
:108BC000EDD300238DF803300DF10303184600F0B8
:108BD0001FFC0C494FF000024FF00003C1E90023D5
:108BE0009DF80330184600F01DFC074B184600F0B6
:108BF00080FB0346184603B05DF804FB6C2B002095
:108C0000702B0020982B0020782B002000B587B017
:108C100001900023039300230493019B059303AB6E
:108C20001A46002144F2010000F018F800BF07B016
:108C30005DF804FBBFF34F8F00BF064BDB6803F406
:108C4000E0620449044B1343CB60BFF34F8F00BF76
:108C500000BFFDE700ED00E00400FA0500B585B0B7
:108C600003900291019272B600BFFFF7FDFA00BFB8
:108C7000FFF7B8F80346002BFAD10F4A0F4BD31A6F
:108C8000DB081B0443F001030D491846FFF768F8A1
:108C90000C4B1B6803F00103002B00D000BE064AFA
:108CA000064BD31ADB081B0443F00203064918469F
:108CB000FFF756F8FFF7BEFFFCF50300B4F503001D
:108CC000A4F70300F0ED00E0B0F703002DE9F04356
:108CD00083B0144800F0E8FE034600221C46154607
:108CE000114BD3E9002314EB020845EB0309CDE94E
:108CF00000890E4BD3E90023DDE90001904271EBBE
:108D0000030307D2DDE9002312F1807643F1000767
:108D1000CDE90067DDE900231046194603B0BDE840
:108D2000F08300BF58230020C82B0020D02B002048
:108D300088B001900091019B0793009B0693079BCD
:108D4000D3E90223CDE90423069BD3E90223CDE92D
:108D50000223DDE90423DDE90201904271EB030304
:108D60002CBF01230023DBB2184608B07047000077
:108D7000F0B585B0019000238DF80F30274B1B789C
:108D8000002B45D0019B002B42D0019B1B7FDBB207
:108D9000002B3DD0FFF79AFF019BD3E902239042BD
:108DA00071EB03032CD3019B1B69002B02D1019BA8
:108DB00000221A77019B5B69019A926910469847D5
:108DC000019B1B69002B23D0019B1B7FDBB2002B77
:108DD0001ED0019BD3E902230199096900200C46AA
:108DE0000546161943EB0507019BC3E90267019B82
:108DF00019460B4801F0EDFE01238DF80F3007E016
:108E0000019B1946064801F0E4FE01238DF80F305E
:108E10009DF80F30184605B0F0BD00BFC42B0020F0
:108E2000D0F70300F0B589B0019000910D230793AE
:108E3000009B00221A70019BD3E90245FFF746FF11
:108E400002460B46A61A65EB0307CDE90467DDE988
:108E50000423012A73F100031BDB049BB3F5350FD8
:108E600005D300F057FA0246134B134403E0019B6D
:108E7000D3E90223134603934FF49603039A002188
:108E80000E4800F01DFD0790079B002B05D1012324
:108E90000EE00021094800F0E1FD079B0D2B06D1F3
:108EA0000198FFF765FF03461A46009B1A700023DE
:108EB000184609B0F0BD00BFFFFFB40058230020E2
:108EC00000B583B0044801F0ADFE0190019B184647
:108ED00003B05DF804FB00BFD0F7030000B583B01A
:108EE000044801F0B5FE0190019B184603B05DF8FF
:108EF00004FB00BFD0F7030000B583B0FFF7E0FF2D
:108F00000190019B002B02D0019B00221A77019B4C
:108F1000002BF3D100BF00BF03B05DF804FB0000DD
:108F2000054BD3E9002312F1807043F10001024B9D
:108F3000C3E9000100BF7047C82B002000B583B013
:108F40000190084B1B68002B07D0064B1B68184686
:108F5000FFF70EFF034B00221A6000BF03B05DF85D
:108F600004FB00BFC02B002000B583B00190FFF7C9
:108F7000ADFE02460B460349C1E9002300BF03B022
:108F80005DF804FBD02B002000B585B00190FFF701
:108F9000A5FF039000238DF80B30039B002B48D0D6
:108FA0002B4B1B68002B03D101238DF80B3019E0EC
:108FB000039BD3E90201264B1B68D3E902239042AD
:108FC00071EB03030ED201238DF80B30204B1B688D
:108FD0001B7FDBB2002B05D01D4B1B6819461D48BB
:108FE00001F0F7FD9DF80B30002B2AD0FFF768FF4A
:108FF00003900DF10A0319460398FFF713FF034688
:10900000002B12D0124B1B68002B02D1019800F0EC
:109010009DFB0F4A039B13609DF80A3083F0010308
:10902000DBB2002BB3D000BF0EE0094B00221A6068
:10903000ADE7074B1B68002B05D1019800F093FBAF
:1090400001E000BF00E000BF00BF05B05DF804FB19
:10905000C02B0020D0F7030000B587B001902C4A48
:1090600003AB1946104600F01CFE059048E0059B36
:109070001B78022B2ED0022B32DC002B02D0012BCE
:1090800014D02DE0059B5B681B7FDBB283F00103EE
:10909000DBB2002B26D0059B5B6801221A77059B6B
:1090A0005B6819461B4801F094FD1BE0059B5A685C
:1090B000194B1B689A4203D1174B00221A6012E029
:1090C000059B5B681946134801F0CAFD03468DF8FD
:1090D000133008E0FFF710FF104B01221A7002E076
:1090E00000BF00E000BF0A4A03AB1946104600F07B
:1090F000F1FD074A03AB1946104600F0D2FD05907A
:10910000059B002BB3D100BF00BF07B05DF804FB87
:10911000302C0020D0F70300C02B0020C42B0020EF
:1091200000B583B00190019800F08BFC0346002B42
:1091300001D0FFF7F5FE0021019800F0A0FC0346E6
:10914000002B02D00198FFF7F9FE0121019800F0F1
:1091500096FC0346002B02D00198FFF705FF01980B
:10916000FFF77AFF0198FFF70FFF00BF03B05DF82C
:1091700004FB000008B5024800F0A3FC00BF08BDD6
:109180005823002000B585B0034600918DF80730C4
:10919000114A02AB1946104600F056FD0390039B9E
:1091A000002B13D0039B9DF807201A70039B009A95
:1091B0005A60094A02AB1946104600F05EFD0346AC
:1091C000002B01D0FFF7D6FF002300E00423184650
:1091D00005B05DF804FB00BF302C002000B583B063
:1091E000164B1B680093164808235822154900F0B7
:1091F000F8FC0190019B002B01D0019B19E06B460C
:10920000114A1946114800F03BFA0190019B002BCE
:1092100001D0019B0DE001210C4800F001FC01236D
:109220000B4A0121094800F0ABFA0A4B01221A70DF
:10923000019B184603B05DF804FB00BFCCF70300A8
:10924000302C0020D82B0020219102005823002030
:10925000FFFF7F00C42B002086B003900B460192D5
:109260008DF80B30019B002B01D1072310E0039BED
:109270001B680593059B019A5A619DF80B30012BE1
:109280000CBF01230023DBB21A46059B1A610023A1
:10929000184606B07047F0B587B00390029101926E
:1092A000039B0593059B1B7FDBB2002B01D00023A2
:1092B0001CE0059B019A9A61FFF708FD02460B46E8
:1092C000029900200C460546161943EB0507059B3D
:1092D000C3E90267059B1B69002B02D0059B029A1C
:1092E0001A6105990020FFF74DFF0346184607B0A5
:1092F000F0BD00B585B00190019B0393039B002254
:109300001A7703990120FFF73DFF0346184605B081
:109310005DF804FB08B5034800F0C6FB0346184699
:1093200008BD00BF5823002082B0EFF310830093E4
:10933000009B019372B600BF019B184602B07047B4
:1093400062B600BF00BF704700B585B00190FFF75F
:10935000EBFF0390164B9B68002B1BD1144B012293
:109360009A60144BD3F88020134B1340104A1360BB
:10937000104B114AC3F880200E4BD3F884300C4AAE
:1093800053600C4B4FF0FF32C3F88420019B002246
:109390001A7002E0019B01221A70039B002B01D17D
:1093A000FFF7CEFF0023184605B05DF804FB00BFB1
:1093B000442C002000E100E0FC06FFBD00B585B0B4
:1093C00003468DF80730104B9B68002B16D09DF894
:1093D0000730002B12D1FFF7A7FF03900B4A0A4B6F
:1093E0001B681360094A084B5B685360064B0022F8
:1093F0009A60039B002B01D1FFF7A2FF00231846C0
:1094000005B05DF804FB00BF442C002000E100E043
:1094100000B583B001900198FFF796FF00BF03B03D
:109420005DF804FB00B583B003468DF807309DF866
:1094300007301846FFF7C2FF00BF03B05DF804FB1A
:1094400082B003468DF807309DF90730002B0CDB06
:109450009DF8073003F01F0205499DF907305B09AD
:10946000012000FA02F241F8232000BF02B0704749
:1094700000E100E082B003468DF807309DF9073027
:10948000002B0DDB9DF8073003F01F0206499DF904
:1094900007305B09012000FA02F2403341F8232033
:1094A00000BF02B0704700BF00E100E082B0034699
:1094B00000918DF807309DF90730002B0ADB009BE7
:1094C000DAB20C499DF907305201D2B20B4483F84D
:1094D00000230BE0009BDAB207499DF8073003F048
:1094E0000F03043B5201D2B20B441A7600BF02B004
:1094F000704700BF00E100E000ED00E000B583B080
:1095000003460A468DF8073013468DF806309DF85D
:1095100006209DF9073011461846FFF7C7FF00BF28
:1095200003B05DF804FB00B583B003468DF8073047
:109530009DF907301846FFF783FF00BF03B05DF8C1
:1095400004FB000000B585B00190019B002B0AD000
:10955000074B43F001030393019B9B010293039B81
:109560000298984700E000BF05B05DF804FB00BF1B
:1095700030F8030084B0039002910192039B029A99
:1095800002F5A872019943F8221000BF04B0704799
:1095900082B001900091019B009A02F5A87253F8E5
:1095A0002230184602B0704782B001900091019BB2
:1095B000009AC3F8042300BF02B0704782B0019044
:1095C0000091019B009AC3F8082300BF02B07047C6
:1095D00082B001900B46ADF80230BDF80230019A1E
:1095E00013441B68184602B0704784B001900B46C4
:1095F000ADF80230BDF80230019A134400221A601F
:10960000BDF80230019A13441B680393039B00BF0B
:1096100004B0704782B00190019BD3F8043518461E
:1096200002B0704782B001900091019B009AC3F88C
:10963000082500BF02B0704782B001900B468DF83C
:1096400003309DF80320019B13441A460123136045
:1096500000BF02B0704782B001900091019B009A58
:10966000C3F8442300BF02B0704782B0019000915C
:10967000019B009AC3F8482300BF02B07047000066
:1096800000B587B0039002910192039B5B79194664
:10969000284A019B42F82130039B5B79264ADB0074
:1096A00013441B79002B0ED008230593234A244B27
:1096B000D31ADB081B0443F0020322491846FEF7C5
:1096C0004FFB059B32E0039B1A68029B1B881946DF
:1096D0001046FFF7A7FF039B93F90420029B9B789A
:1096E00019461046FFF70AFF039B93F9043018460A
:1096F000FFF719FF039B5B790F4ADB00134401223C
:109700001A71039B5B7919460B4A039B42F831306F
:1097100000230593094A0A4BD31ADB081B0443F0C4
:10972000030309491846FEF71BFB059B184607B0C3
:109730005DF804FB502C0020542C00200CF6030094
:10974000B4F50300DCF7030000F8030000B583B0B4
:109750000190019B1B6800211846FFF76DFF00BFB9
:1097600003B05DF804FB00B583B00190019B1B685A
:1097700004211846FFF760FF00BF03B05DF804FB4B
:1097800000B587B00390029101928DF803304FF439
:109790008032029B02FA03F30593029B50339BB283
:1097A0009B00ADF81230019B23F07F430193039B94
:1097B0001B6805991846FFF701FF039B1B68059975
:1097C0001846FFF752FF039B1B68BDF81220114695
:1097D0001846FFF70AFF039B1B68019A0299184677
:1097E000FFF7C8FE039B1B6805991846FFF733FF78
:1097F0009DF80330002B05D0039B1B680599184684
:10980000FFF7D2FE00BF07B05DF804FB00B585B0DE
:109810000390029113468DF80730039B1B68029951
:109820001846FFF718FF9DF80730002B05D0039B63
:109830001B6802991846FFF7B7FE00BF05B05DF838
:1098400004FB00B583B001900091019B1B68009957
:109850001846FFF70AFF019B1B6800991846FFF79F
:10986000ADFE00BF03B05DF804FB00B583B001900E
:109870000B46ADF80230019B1B68BDF80220114673
:109880001846FFF7A5FE0346002B09D0019B1B6875
:10989000BDF8022011461846FFF7A7FE012300E09D
:1098A0000023184603B05DF804FB82B001900091DC
:1098B000019A009BD31A23F07F43184602B07047E9
:1098C00000B58BB003900291019200934FF4803267
:1098D000029B02FA03F30993029B50339BB29B0055
:1098E000ADF82230019B23F07F430193099903983F
:1098F000FFF7A7FF039B1B681846FFF78BFE079037
:10990000039B1B6802991846FFF742FE0690039BD3
:109910001B68079A02991846FFF72CFE039B1B68E9
:10992000BDF8222011461846FFF75FFE07990698FA
:10993000FFF7BBFF0346012B0AD11020FFF702FE01
:10994000039B1B68BDF8222011461846FFF74DFE09
:10995000039B1B681846FFF75DFE07900799019867
:10996000FFF7A3FF0590039B1B6809991846FFF7B3
:1099700072FE059B012B15D1039B1868019B0133D7
:109980001A460299FFF7F6FD1020FFF7DBFD039B57
:109990001B681846FFF73EFE0246079B934235D0F0
:1099A0000D2339E0039B1B68019A02991846FFF7C3
:1099B000E1FD039B1B681846FFF72CFE0790019BF7
:1099C000013B07991846FFF770FF0590009BC3F114
:1099D000FF1303F57F43059A9A4201D90D231BE03B
:1099E000059B002B12D1039B1868019B01331A467B
:1099F0000299FFF7BFFD039B1B681846FFF70AFE9D
:109A00000246079B934201D00D2305E001220999EC
:109A10000398FFF7FBFE002318460BB05DF804FB2C
:109A200000B583B001900B468DF803309DF80330EC
:109A30001A4602210198FFF7E9FE00BF03B05DF866
:109A400004FB00B583B001904FF482710198FFF7D9
:109A50000CFF0346184603B05DF804FB00B583B065
:109A6000019000914FF48032009B02FA03F31946F3
:109A70000198FFF7E6FE00BF03B05DF804FB00B5F8
:109A800085B001900091009B50339BB29B00ADF8D4
:109A90000E30BDF80E3019460198FFF7E6FE03467A
:109AA000184605B05DF804FB00B583B00190019B3A
:109AB0001B681846FFF7AEFD0346184603B05DF875
:109AC00004FB00B583B00190019B93F90430184664
:109AD000FFF7D0FC00BF03B05DF804FB08B5044BF2
:109AE0001B68044A12681046984700BF08BD00BFB3
:109AF000502C0020542C002086B001900091019B36
:109B000053E8011F8AB2D88902449889824228BF4B
:109B1000121A1889824202BFBFF32F8F002307E079
:109B2000C2EA010243E801200028E9D14FF0010315
:109B30008DF80F30059002910492029A009B1A60F2
:109B40009DF80F30DBB2184606B0704784B0019024
:109B5000019951E8013FC3EA034341E80132002A79
:109B6000F7D10392029300BF04B0704786B0019012
:109B70000091019B53E8021F1FFAA1F2D88882428C
:109B800002BFBFF32F8F00230DE0D88902449889CC
:109B9000824228BF121AC1EA024243E8022000288A
:109BA000E8D14FF001038DF80F3005900291049237
:109BB000029A009B1A609DF80F30DBB2184606B07F
:109BC000704784B00190019951E8023FC3EA2343F2
:109BD00041E80232002AF7D10392029300BF04B099
:109BE000704784B00390029111461A460B46ADF8B7
:109BF00006301346ADF80430029B002B01D10E2332
:109C00001FE0BDF80630BDF80420B3FBF2F101FB04
:109C100002F29B1A9BB2002B01D0092311E0039B97
:109C2000029A1A60039B00225A60039B00229A60EA
:109C3000039BBDF806209A81039BBDF80420DA81BE
:109C40000023184604B0704700B585B0019000911C
:109C5000009B19460198FFF74FFF0346002B07D0E2
:109C6000019B1B68009A128813440393039B00E036
:109C70000023184605B05DF804FB00B583B00190E1
:109C80000091009B1A88009B5B889A4204D101983E
:109C9000FFF75CFF012300E00023184603B05DF8E6
:109CA00004FB00B585B001900091009B1946019816
:109CB000FFF75CFF0346002B07D0019B1B68009A4F
:109CC000528813440393039B00E00023184605B019
:109CD0005DF804FB00B583B001900091009B1A88E9
:109CE000009B5B889A4204D10198FFF76AFF012329
:109CF00000E00023184603B05DF804FB00B585B012
:109D000001900091009B5B099B00019A1A44009B03
:109D100003F01F03012101FA03F31946104600F076
:109D20004DF8039000BF05B05DF804FB00B585B0A9
:109D300001900091009B5B099B00019A1A44009BD3
:109D400003F01F03012101FA03F3DB431946104618
:109D500000F064F8039000BF05B05DF804FB82B02A
:109D600001900091009B5B099B00019A13441A68C3
:109D7000009B03F01F0322FA03F303F00103002BFF
:109D800014BF01230023DBB2184602B0704710B4A1
:109D900087B001900091019B009A53E8004F104654
:109DA00043E8000191F0000FF7D10594049003916E
:109DB000059B184607B05DF8044B704710B487B098
:109DC00001900091019B009A53E8004F44EA020081
:109DD00043E8000191F0000FF6D10594049003913F
:109DE000049B184607B05DF8044B704710B487B069
:109DF00001900091019B009A53E8004F04EA020091
:109E000043E8000191F0000FF6D10594049003910E
:109E1000059B184607B05DF8044B704710B487B037
:109E200001900091019B009A53E8004F04EA020060
:109E300043E8000191F0000FF6D1059404900391DE
:109E4000049B184607B05DF8044B704710B487B008
:109E500001900091019B009A53E8004F04EB02002F
:109E600043E8000191F0000FF6D1059404900391AE
:109E7000049B184607B05DF8044B704710B487B0D8
:109E800001900091019B009A53E8004FA4EB02005F
:109E900043E8000191F0000FF6D10594049003917E
:109EA000049B184607B05DF8044B704710B487B0A8
:109EB00001900091019B009A53E8004F94422CBFFF
:109EC000A01A204643E8000191F0000FF4D1059458
:109ED00004900391049B184607B05DF8044B70474B
:109EE00000B583B0019001210198FFF767FF034699
:109EF000184603B05DF804FB00B583B00190002163
:109F00000198FFF773FF0346184603B05DF804FBA2
:109F100082B001900B468DF80330019BDA689DF802
:109F200003300199098A01FB03F31344184602B078
:109F3000704782B001900091009B019AD2689B1AF1
:109F4000019A128AB3FBF2F3DBB2184602B07047F3
:109F500084B00190019B002B01D10E2320E0019BD6
:109F60009A68019B5B68D31A8DF80F30019B1B68C0
:109F7000019A52681A6007E0019B1A681368591C1D
:109F800011609DF80F201A709DF80F305A1E8DF841
:109F90000F20002BF0D1019B1B6800221A710023B7
:109FA000184604B0704700B585B0019000230393B4
:109FB00000238DF80A300DF10A031846FFF728FA3E
:109FC000019B1B681A68019B5B689A421FD9019B21
:109FD0001B681A68013A1A601B681B7819460198B9
:109FE000FFF796FF0390019B9A68019B1B681B6813
:109FF000D31A8DF80B30019B1B681B799DF80B2041
:10A000009A4204D9019B1B689DF80B201A719DF898
:10A010000A301846FFF706FA039B184605B05DF8AC
:10A0200004FB10B584B001900091009B03930023C2
:10A030008DF80B300DF10B031846FFF7E9F9019B82
:10A040001B681C68621C1A6003990198FFF771FF76
:10A05000034623709DF80B301846FFF7E3F900BF65
:10A0600004B010BD00B583B00190019B9B68002B2C
:10A070000CD0019B5B69019A1069019A1168019AE1
:10A0800092689847019B00229A6000E000BF03B0ED
:10A090005DF804FB0EB400B584B00190059B002B65
:10A0A0000AD00023039306AB039303AB1A4605992A
:10A0B000019800F0B5F900E000BF04B05DF804EBD2
:10A0C00003B0704700B583B001900B468DF80330A4
:10A0D0009DF803300A2B03D10D210198FFF7F2FF01
:10A0E000019B1A68019B9B68581C01998860134466
:10A0F0009DF803201A70019B9A68019B5B689A4245
:10A1000002D30198FFF7AEFF00BF03B05DF804FB78
:10A1100000B587B00390029101920093002305934C
:10A12000009B03F00103002B24D00BE0029B0133C2
:10A130000293059B013305939DF81330194603984C
:10A14000FFF7C0FF029B1B788DF813309DF813308A
:10A15000002BEBD106E0019B013B019320210398EA
:10A16000FFF7B0FF019A059B9A422ED9019B002B65
:10A17000F1D12AE0029B002B0BD0029814F081FE53
:10A18000059006E0019B013B019320210398FFF716
:10A1900099FF019A059B9A420FD9019B002BF1D19F
:10A1A0000BE0029B01330293059B013305939DF85D
:10A1B000133019460398FFF785FF029B1B788DF833
:10A1C00013309DF81330002BEBD100BF07B05DF8C2
:10A1D00004FB000000B589B0039002910192009346
:10A1E000029B07930123069307E0079A019BB2FBAA
:10A1F000F3F30793069B01330693079A019B9A4258
:10A20000F3D2009A069B9A4201D9009B06930B9BBE
:10A2100003F00103002B22D10A9B002B1FD00B9BC4
:10A2200003F00203002B06D0009B002B03D1302348
:10A230008DF8173002E020238DF8173008E00A9BD4
:10A24000013B0A939DF8173019460398FFF73AFF30
:10A250000A9B002B03D0069A0A9B9A42EFD3012354
:10A260000793009B012B03D9009B013B009309E05E
:10A27000029A079BB2FBF3F30493049A019B9A4260
:10A2800000D205E0079B019A02FB03F30793E8E77E
:10A29000029A079BB2FBF3F30493049B079A02FB19
:10A2A00003F3029AD31A0293154A049B13441B78B2
:10A2B00019460398FFF706FF079A019BB2FBF3F3D9
:10A2C0000793079B002BE3D10B9B03F00103002BAB
:10A2D00011D00A9B002B0ED006E00A9B013B0A938B
:10A2E00020210398FFF7EEFE0A9B002B03D0069A6D
:10A2F0000A9B9A42F1D300BF09B05DF804FB00BF8E
:10A3000038F8030000B589B00590049103920293D8
:10A31000049B002BB8BF5B4206930123079307E021
:10A32000039B069A92FBF3F30693079B0133079373
:10A33000039B069A9A42F3DA029A079B9A4201D942
:10A34000029B07930A9B002B0AD0049B002B04DB83
:10A350000B9B03F00403002B02D00A9B013B0A93E2
:10A360000B9B03F00203002B02D0029B002B16D0A4
:10A370000B9B03F00103002B11D10A9B002B0ED085
:10A3800006E00A9B013B0A9320210598FFF79AFEFD
:10A390000A9B002B03D0079A0A9B9A42F1D3049B95
:10A3A000002B07DA049B5B4204932D210598FFF7ED
:10A3B00089FE08E00B9B03F00403002B03D02B2144
:10A3C0000598FFF77FFE0B9B03F00203002B19D0CB
:10A3D0000B9B03F00103002B14D1029B002B11D126
:10A3E0000A9B002B0ED006E00A9B013B0A9330210A
:10A3F0000598FFF767FE0A9B002B03D0079A0A9B7C
:10A400009A42F1D304990B9B01930A9B0093029B00
:10A41000039A0598FFF7DEFE00BF09B05DF804FB64
:10A4200000B58FB0059004910392049B002B00F0BF
:10A430009181049B1B788DF83730049B0133049382
:10A440009DF83730002B00F07C819DF83730252BAC
:10A4500040F06B8100230A9301230C93049B1B782B
:10A460008DF837309DF83730302B0DD0302B1BDC7A
:10A470002B2B11D02D2B17D10A9B43F001030A93EC
:10A48000049B0133049312E00A9B43F002030A93F6
:10A49000049B013304930AE00A9B43F004030A93EC
:10A4A000049B0133049302E000230C9300BF0C9B38
:10A4B000002BD3D1002309939DF837302A2B0CD1E0
:10A4C000039B1B68191D039A11601B68099A1344AA
:10A4D0000993049B013304931AE0049B1B788DF8C5
:10A4E00037309DF837302F2B12D99DF83730392B64
:10A4F0000ED8049B01330493099A13469B0013441E
:10A500005B001A469DF837301344303B0993D3E77C
:10A5100000230B93049B1B788DF837309DF8373060
:10A520002E2B1DD1049B01330493049B1B788DF8C3
:10A5300037309DF837302F2B12D99DF83730392B13
:10A540000ED8049B013304930B9A13469B001344CB
:10A550005B001A469DF837301344303B0B93E4E719
:10A56000049B1B788DF837309DF837306C2B03D067
:10A570009DF83730682B07D1049B01330493049B6B
:10A580001B788DF83730EFE79DF83730252B00F03A
:10A59000C280252BC0F2C480782B00F3C180582BD9
:10A5A000C0F2BE80583B202B00F2BA8001A252F8C4
:10A5B00023F000BFA3A6020021A7020021A70200EA
:10A5C00021A7020021A7020021A7020021A7020063
:10A5D00021A7020021A7020021A7020021A7020053
:10A5E00039A602005BA6020021A7020021A70200F3
:10A5F00021A7020021A702005BA6020021A70200FA
:10A6000021A7020021A7020021A7020021A7020022
:10A6100021A70200E3A6020021A7020021A7020051
:10A62000C7A6020021A702007FA6020021A7020000
:10A6300021A70200A3A60200039B1B68191D039A11
:10A6400011601B680C930C9B8DF81F309DF81F3018
:10A6500019460598FFF736FD63E0039B1B68191D3B
:10A66000039A11601B680C930A9B0193099B00934A
:10A670000B9B0A220C990598FFF744FE51E0039BBF
:10A680001B68191D039A11601B680C930C990A9B97
:10A690000193099B00930B9B0A220598FFF79AFDF3
:10A6A0003FE0039B1B68191D039A11601B680C9304
:10A6B0000C990A9B0193099B00930B9B1022059810
:10A6C000FFF788FD2DE0039B1B68191D039A11609D
:10A6D0001B6808930A9B099A08990598FFF718FDCB
:10A6E0001FE0039B1B68191D039A11601B680C93E4
:10A6F00030210598FFF7E6FC78210598FFF7E2FC8A
:10A700000C99002301930823009308231022059835
:10A71000FFF760FD05E025210598FFF7D3FC00E079
:10A7200000BF049B0133049305E09DF837301946C0
:10A730000598FFF7C7FC049B1B78002B7FF479AECC
:10A7400000E000BF059B1B7B002B04D00598FFF7A2
:10A7500089FC00E000BF0FB05DF804FB00B583B0DA
:10A7600001900198FFF7F4FB0346184603B05DF82B
:10A7700004FB00B58BB001900091019B1B8A043B48
:10A780000793009A079B1344DA1C079BB2FBF3F371
:10A790008DF81B300198FFF706FC0590059B002BF8
:10A7A00001D1002338E0059B00221A71059B01228C
:10A7B0005A71079B9AB2059BDA80059B09939DF815
:10A7C0001B30013B0493099B019A1A6000230893F4
:10A7D0001DE00198FFF7E7FB0390039B002B0ED0D1
:10A7E000059B5B790133DAB2059B5A71099B039A89
:10A7F0001A60039B019A1A60039B099304E0059871
:10A8000000F00EF8002307E0089B01330893089A34
:10A81000049B9A42DDD3059B18460BB05DF804FB00
:10A8200000B58BB00190019B0793079B5B798DF876
:10A830001B30019B08939DF81B30013B05930023BF
:10A84000099305E0089B1B680893099B0133099352
:10A85000099A059B9A42F5D3089B1B680493019BB8
:10A860000893002309930BE0089B1B680393089946
:10A870000498FFF7D6FB039B0893099B01330993C8
:10A880009DF81B30099A9A42EED300BF00BF0BB06F
:10A890005DF804FB00B585B00190019B0393039B19
:10A8A000043301211846FFF7D1FA00BF05B05DF867
:10A8B00004FB00B587B00190019B0593059B043311
:10A8C00001211846FFF7DAFA0346039303AB04931A
:10A8D000049B1B78002B02D10198FFF7A1FF00BF5A
:10A8E00007B05DF804FB00B591B0039002910192AE
:10A8F0000093039B0993039B0F93099BDB881A46E4
:10A90000099B5B7902FB03F3043B0893099BDB88FB
:10A910000793009B1A1D079BB2FBF3F30E93009B5A
:10A920000433079AB3FBF2F2079901FB02F29B1A78
:10A930000D93019B1A68009B1344089A9A4203D214
:10A94000089A009BD31A01E0019B1B680C93019BA2
:10A950000C9A1A6005E00F9B1B680F930E9B013B3E
:10A960000E930E9B002BF6D100230B93079A0D9BA1
:10A97000D31A0A930A9A0C9B934228BF13460A9350
:10A980002AE0029A0B9B134406930F9A0D9B1344E3
:10A99000043305939DF84830002B05D00A9A059999
:10A9A000069814F012FA04E00A9A0699059814F031
:10A9B0000CFA00230D930F9B1B680F930C9A0A9BB4
:10A9C000D31A0C930B9A0A9B13440B93079A0C9B74
:10A9D000934228BF13460A930C9B002BD1D100BF92
:10A9E00000BF11B05DF804FB00B589B0059004917B
:10A9F00003920293039B079307AA00230093029BF1
:10AA000004990598FFF76FFF00BF09B05DF804FBDC
:10AA100000B589B00590049103920293039B0793BC
:10AA200007AA01230093029B04990598FFF75BFF97
:10AA300000BF09B05DF804FB82B003468DF8073013
:10AA40009DF90730002B0DDB9DF8073003F01F0246
:10AA500006499DF907305B09012000FA02F26033D4
:10AA600041F8232000BF02B0704700BF00E100E0C2
:10AA700082B00190019B00221A60BFF35F8F00BF7C
:10AA800000BF02B0704741DF704700BF184600B5F5
:10AA900085B000238DF807300DF107031846FEF747
:10AAA000B7FCF1EE103A0393039B23F09F0302934C
:10AAB000029BE1EE103A00BFBFF35F8F00BF26207C
:10AAC000FFF7BAFF9DF807301846FEF7ABFC00BF52
:10AAD00005B05DF804FB000008B5064B00221A70B3
:10AAE0000548FFF7C5FF0549054800F03CF800237D
:10AAF000184608BD602C00205C2C002054F8030090
:10AB0000642C002000B583B0FFF7C1FF13F03CFEBA
:10AB10000346002B03D0FFF7B6FF019002E020BFF1
:10AB200040BF20BF00BF03B05DF804FB82B00190BE
:10AB3000019B9B6800229A60019B9B6800221A611E
:10AB4000019B9B6800225A61019B9B680022DA608E
:10AB5000019B9B6800225A60019B9B6800221A603F
:10AB600000BF02B0704782B001900091019B009A33
:10AB70001A60019B1B681A68019B5A60019B5A6806
:10AB8000019B1B685B689A4202D1019B00225A60BC
:10AB900000BF02B0704782B00190019B5B68002B40
:10ABA00014D0019B5B681A46019B1B689B68134489
:10ABB0001A46019B5A60019B5A68019B1B685B689F
:10ABC0009A4204D1019B00225A6000E000BF02B00B
:10ABD000704700B585B001900091019B5B680393BD
:10ABE0000FE0019B9B68039A1268009910469847F2
:10ABF000034683F00103DBB2002B07D1039B1B68E4
:10AC00000393039B1B68002BEBD100E000BF039B69
:10AC10001A68009B1A60039B009A1A6000BF05B077
:10AC20005DF804FB84B00190019B5B681B68039393
:10AC3000019B5B681B68002B06D0019B5B681A6850
:10AC4000019B5B6812681A60039B184604B070474A
:10AC500082B00190019B5B681B68184602B0704788
:10AC600084B00190009100238DF80B30019B5B684C
:10AC700003930FE0039B1B68009A9A4207D1009B45
:10AC80001A68039B1A6001238DF80B3006E0039BC2
:10AC90001B680393039B1B68002BEBD19DF80B30C3
:10ACA000184604B07047000000B585B001900198C7
:10ACB00000F00EF80390039B002B01D0039B00E0F3
:10ACC000024B184605B05DF804FB00BF6CF80300AA
:10ACD00086B00190164B0593164B04931FE0049A1F
:10ACE000059BD31ADB10DA0F13445B10DB00059AC7
:10ACF00013440393039B1B680293029A019B9A429D
:10AD000002D9039B04930AE0029A019B9A4203D260
:10AD1000039B0833059302E0039B5B6804E0059AFC
:10AD2000049B9A42DBD30023184606B0704700BF4D
:10AD30006CFC030094FD0300024BD3F88034DBB2BB
:10AD40001846704700700240024BD3F88434DBB2DF
:10AD5000184670470070024008B50AF007FA002351
:10AD6000184608BD84B003468DF807300B468DF8B1
:10AD7000063013468DF805309DF8073003F01F02AA
:10AD80009DF806305B0103F060031A439DF805301F
:10AD9000DB01DBB213430393039BDBB2184604B021
:10ADA000704782B00190019B1B7A184602B0704731
:10ADB00000B585B001900B468DF803300198FFF780
:10ADC000F0FF03461A469DF80330934201D3002357
:10ADD00009E0019B093303939DF8032013465B00B0
:10ADE0001344039A1344184605B05DF804FB82B07F
:10ADF0000190019B1B78184602B0704782B0019009
:10AE0000019B5B78184602B0704784B001900B46F6
:10AE10008DF80330019B5B789DF803209A4201D3A3
:10AE2000002309E0019B9B781A46019B134403937E
:10AE30009DF80330039A1344184604B0704782B05B
:10AE40000190019B1B78184602B0704782B00190B8
:10AE5000019B1B68184602B0704700B583B0019093
:10AE60000198FFF7F3FF03461B68184603B05DF82F
:10AE700004FB00B583B001900198FFF7E7FF03469C
:10AE80005B68184603B05DF804FB00B583B0019021
:10AE90000198FFF7DBFF03465B68184603B05DF8D7
:10AEA00004FB0000014B1846704700BF10FE030072
:10AEB0004FF08043D3F838341846704708B5FFF791
:10AEC000F7FF034603F00103002B14BF0123002307
:10AED000DBB2184608BD08B5FFF7EAFF034603F0EA
:10AEE0000203002B14BF01230023DBB2184608BD68
:10AEF00000B583B001900091019B5B681B680099CD
:10AF0000019898470346184603B05DF804FB00B566
:10AF100083B001900091019B1B689B68009A528846
:10AF20001046984700BF03B05DF804FB00B583B03E
:10AF300001900B468DF80330074B1B68002B06D0A1
:10AF4000054B1B689DF8032011460198984700BFE8
:10AF500003B05DF804FB00BF2C2E002000B583B0C9
:10AF600003468DF80730074B5B68002B05D0054B77
:10AF70005B689DF807201046984700BF03B05DF856
:10AF800004FB00BF2C2E002010B58EB0039001935F
:10AF90000B468DF80B3013468DF80A3000230993C9
:10AFA00000230D9302E00D9B01330D93039B5B681F
:10AFB0005C6809A8012300220399A0470346002BDF
:10AFC000F1D100238DF8233000230C9300238DF85A
:10AFD0002F30002306934FE0039B5B685C680DF104
:10AFE000230206A801230399A047039B5B685C68C2
:10AFF0000DF1170206A801230399A0479DF8173009
:10B000009DF80B209A4227D19DF82F209DF80A30F9
:10B010009A421CD19DF823301A46109B1A60019B5E
:10B020005A1C01929DF823201A70019B5A1C019210
:10B030009DF80B201A70039B5B685C689DF82330B9
:10B04000023B06A8019A0399A047002319E09DF846
:10B050002F3001338DF82F30039B5B685C689DF8BF
:10B060002330023B06A800220399A0479DF8233015
:10B070001A460C9B13440C930C9A0D9B9A42ABD32B
:10B08000052318460EB010BD84B003468DF8073076
:10B090009DF90730002B0BDA9DF8073003F00F0302
:10B0A0008DF80E309DF80E30DB00084A13440AE09C
:10B0B0009DF8073003F00F038DF80F309DF80F3027
:10B0C000DB00034A1344184604B070478C2D00205F
:10B0D000D42D002000B583B003468DF807309DF8CD
:10B0E00007301846FFF7D0FF03461B68184603B029
:10B0F0005DF804FB00B585B0034600918DF807307C
:10B100009DF807301846FFF7BFFF0390039B009A96
:10B110001A60009B002B03D1039B00225A6004E0BD
:10B12000009B5B681A68039B5A6000BF05B05DF81E
:10B1300004FB000000B583B00190064B5B68054A34
:10B1400012680199104698470346184603B05DF807
:10B1500004FB00BFD42D002000B58BB00190019BF3
:10B160000993099B1B78052B1AD1FFF7EDFD0346C8
:10B170008DF82330FFF7E0FD03468DF81B300022E9
:10B1800000210020FFF7EEFD03461A469DF81B3014
:10B19000934205D19DF82330052B01D13A4B0993F9
:10B1A000099B1B78002B2ED100F080FE079007E052
:10B1B00009990798FFF7ABFE0798FFF766FE07901F
:10B1C000079B002BF4D100238DF80B300DF10B03FE
:10B1D0001846FEF71DF92D4B1B68002B03D1099B68
:10B1E0005A882B4B1A8001212848FEF72FFE9DF824
:10B1F0000B301846FEF716F901210998FFF796FE65
:10B20000224B1B683CE0234A03AB19461046FEF76D
:10B210001BFD0590059B002B32D0059A099B1B68EE
:10B22000136000238DF80A300DF10A031846FEF76B
:10B23000EFF8174B1A88154B1B689BB2D31A9BB2B9
:10B2400001339AB2059BDA8000211048FEF79FFD7A
:10B2500003469AB2059B9A809DF80A301846FEF77D
:10B26000E1F80C4A03AB19461046FEF706FD03460B
:10B270008DF813309DF8133019460998FFF756FEE4
:10B280000BB05DF804FB00BFACFD0300842D002073
:10B29000882D0020742D002000B583B003468DF862
:10B2A00007309DF80730022B0ED0022B10DC002B4C
:10B2B00002D0012B04D00BE00748FFF74DFF07E059
:10B2C0000648FFF749FF03E00548FFF745FF00BFC9
:10B2D00000BF03B05DF804FBA0FD0300A4FD030064
:10B2E000A8FD030000B583B001900198FFF734FF7B
:10B2F00000BF03B05DF804FB00B583B003468DF8D2
:10B3000007300348FFF728FF00BF03B05DF804FBD8
:10B31000B0FD030082B003468DF807309DF807307A
:10B32000082B27D801A252F823F000BF51B3020026
:10B3300055B3020059B302005DB3020061B30200CD
:10B3400065B3020069B302006DB3020071B302007D
:10B35000002310E000230EE001230CE000230AE0AC
:10B36000002308E0012306E0012304E0012302E0BA
:10B37000012300E00023184602B0704782B0034664
:10B380008DF807309DF80730082B27D801A252F816
:10B3900023F000BFB9B30200BDB30200C1B3020085
:10B3A000C5B30200C9B30200CDB30200D1B302009D
:10B3B000D5B30200D9B30200002310E000230EE051
:10B3C00001230CE000230AE0002308E0002306E04C
:10B3D000002304E0002302E0012300E000231846DC
:10B3E00002B07047014B1B7818467047282E00208A
:10B3F00010B582B003468DF807309DF80730184627
:10B40000FFF788FF03461C461C4B1B781846FFF7C6
:10B4100081FF03469C420DD09DF807301846FFF788
:10B4200079FF0346002B03D0154803F061FF01E0CC
:10B4300003F0A8FF9DF807301846FFF79FFF03466B
:10B440001C460E4B1B781846FFF798FF03469C429C
:10B450000CD09DF807301846FFF790FF0346002BED
:10B4600002D009F0DDFF01E009F0D0FF034A9DF8AA
:10B470000730137000BF02B010BD00BF282E00209F
:10B480006023002000B587B001900B468DF8033093
:10B4900013468DF802309DF80230002B01D00723AF
:10B4A00028E09DF8033019460198FFF781FC0490CD
:10B4B0000498FFF7A3FC03468DF80F3000238DF8A6
:10B4C000173010E09DF8173019460498FFF79DFCDF
:10B4D0000290029B1B78184600F0B0FC9DF81730D4
:10B4E00001338DF817309DF817209DF80F309A42E0
:10B4F000E8D30023184607B05DF804FB00B587B019
:10B5000001900B468DF803309DF8033019460198E1
:10B51000FFF74EFC04900498FFF770FC03468DF88B
:10B520000F3000238DF8173010E09DF817301946C2
:10B530000498FFF76AFC0290029B1B78184600F003
:10B540009BFC9DF8173001338DF817309DF81720BC
:10B550009DF80F309A42E8D300BF00BF07B05DF8F6
:10B5600004FB000000B589B00190454808234FF462
:10B5700084724449FEF735FB0690069B002B01D0F0
:10B58000032378E0404809F077FD0690069B002BE6
:10B5900001D0069B6FE03D4B00221A703C4B00220D
:10B5A0001A603C4B00221A60482200213A4813F0EE
:10B5B00035FC48220021394813F030FC019B002B58
:10B5C00009D1374B00221A60354B00225A60344BA8
:10B5D00000221A7204E0324B019A07CA83E807007E
:10B5E000002007F037FB0690069B002B05D0069B3A
:10B5F000852B02D00698FDF709FBFFF753FC059059
:10B6000000238DF81F3018E000238DF81E3007E06E
:10B610000398FFF714FC034605991846FFF76AFDE7
:10B620009DF81E305A1C8DF81E2019460498FFF70D
:10B63000ECFB0390039B002BEAD19DF81F305A1CB2
:10B640008DF81F2019460598FFF7B2FB0490049B64
:10B65000002BD9D10B238DF8083002AB1946059881
:10B66000FFF746FC0690069B002B03D0FFF774FB08
:10B67000069B00E00023184609B05DF804FB00BFFC
:10B68000742D00206C2C0020E5B20200282E002032
:10B690001C2E0020202E00208C2D0020D42D0020D8
:10B6A0002C2E002000B583B009F01AFE034683F06B
:10B6B0000103DBB2002B04D109F01EFE0346002B70
:10B6C00001D008230CE0084807F012FB0190019B11
:10B6D0000093009B002B02D00098FDF797FA0023FF
:10B6E000184603B05DF804FBB4FD030008B509F08B
:10B6F00049FD00BF08BD08B509F0A0FD00BF08BDA9
:10B7000008B507E0FFF7DAFB034683F00103DBB27D
:10B71000002B0BD1FFF7DFFB034683F00103DBB205
:10B72000002BEFD10248FFF717FD00E000BF08BD76
:10B73000B8FD030000B583B082238DF8043001AB5F
:10B740001846FFF709FD00BF03B05DF804FB0000D9
:10B7500000B587B00190019B1B78852B00F24B82CE
:10B7600001A252F823F000BF81BA0200C3BA02005E
:10B7700051BB0200E5BA020015BB020079BB020012
:10B7800089BB0200F7BB0200CDBB0200DBBB02009D
:10B79000E9BB0200F7BB0200F7BB0200F7BB0200E7
:10B7A000F7BB02006BBB0200F7BB0200F7BB020055
:10B7B000F7BB0200F7BB0200F7BB0200F7BB0200B9
:10B7C000F7BB0200F7BB0200F7BB0200F7BB0200A9
:10B7D000F7BB0200F7BB0200F7BB0200F7BB020099
:10B7E000F7BB0200F7BB0200F7BB0200F7BB020089
:10B7F000F7BB0200F7BB0200F7BB0200F7BB020079
:10B80000F7BB0200F7BB0200F7BB0200F7BB020068
:10B81000F7BB0200F7BB0200F7BB0200F7BB020058
:10B82000F7BB0200F7BB0200F7BB0200F7BB020048
:10B83000F7BB0200F7BB0200F7BB0200F7BB020038
:10B84000F7BB0200F7BB0200F7BB0200F7BB020028
:10B85000F7BB0200F7BB0200F7BB0200F7BB020018
:10B86000F7BB0200F7BB0200F7BB0200F7BB020008
:10B87000F7BB0200F7BB0200F7BB0200F7BB0200F8
:10B88000F7BB0200F7BB0200F7BB0200F7BB0200E8
:10B89000F7BB0200F7BB0200F7BB0200F7BB0200D8
:10B8A000F7BB0200F7BB0200F7BB0200F7BB0200C8
:10B8B000F7BB0200F7BB0200F7BB0200F7BB0200B8
:10B8C000F7BB0200F7BB0200F7BB0200F7BB0200A8
:10B8D000F7BB0200F7BB0200F7BB0200F7BB020098
:10B8E000F7BB0200F7BB0200F7BB0200F7BB020088
:10B8F000F7BB0200F7BB0200F7BB0200F7BB020078
:10B90000F7BB0200F7BB0200F7BB0200F7BB020067
:10B91000F7BB0200F7BB0200F7BB0200F7BB020057
:10B92000F7BB0200F7BB0200F7BB0200F7BB020047
:10B93000F7BB0200F7BB0200F7BB0200F7BB020037
:10B94000F7BB0200F7BB0200F7BB0200F7BB020027
:10B95000F7BB0200F7BB0200F7BB0200F7BB020017
:10B96000F7BB0200F7BB0200FFB9020081B9020079
:10B97000C5B9020033BA020053BA020081BB02000B
:10B98000A348FFF7D7FBA24800F01AFB0D20FFF7F2
:10B99000E5FA00F02DFC01F072FA9E4B1B68002BBB
:10B9A00003D19D4B1B7A002B01D0012300E0002323
:10B9B00003F00103DBB2184609F054FC0120FFF745
:10B9C00017FD21E100F014FC09F072FC0020FFF7E4
:10B9D0000FFD924800F0F4FA9048FFF7ABFB0E2001
:10B9E000FFF7BCFAFFF7FEFC03461846FFF792FC90
:10B9F0000346002B00F0018103F0C4FCFDE0FFF7DB
:10BA0000F1FC0346072B0ED0072B10DC052B02D0D0
:10BA1000062B04D00BE00220FFF7EAFC08E0082028
:10BA2000FFF7E6FC04E00220FFF7E2FC00E000BFC5
:10BA3000EAE0FFF7D7FC0346032B40F0E08009F073
:10BA400067FC0346002B00F0DA800420FFF7D0FCEF
:10BA5000D5E0FFF7C7FC0346032B07D109F058FCDC
:10BA60000346002B02D00420FFF7C2FC09F088FC3B
:10BA70000346002B00F0C5800620FFF7B9FCC0E0AC
:10BA8000FFF7B0FC0346032B04D0FFF7ABFC0346E3
:10BA9000082B02D16248FFF75BFE0020FFF75EFA39
:10BAA00000F0FEF9059008E001990598FFF720FAEB
:10BAB00003900598FFF7DDF90590059B002BF3D166
:10BAC000A2E000F095FB01F0D1F90220FFF790FC15
:10BAD0000120FFF743FA0198FFF72CFB019800F0D3
:10BAE0006FFA91E0FFF77EFC0346082B05D1022098
:10BAF000FFF77EFC09F09EFC02E00520FFF778FCD2
:10BB00000320FFF72BFA0198FFF714FB019800F0D0
:10BB100057FA79E00320FFF721FA4248FFF70AFBC2
:10BB2000404800F04DFAFFF75DFC0346062B02D0BB
:10BB3000082B04D007E00720FFF75AFC07E002209B
:10BB4000FFF756FC03E00220FFF752FC5CE05BE0ED
:10BB50000320FFF74DFC0220FFF700FA019800F0E8
:10BB60002FFA0198FFF7E6FA4EE00F20FFF7F6F9FB
:10BB7000019800F025FA47E00198FFF7DBFA43E06F
:10BB80000198FFF7D7FA3FE0019B9B781846FFF733
:10BB90007BFA0490049B5B68049A12680199104632
:10BBA00098470346002B2ED0019B9B7803F00F0390
:10BBB000002B28D0019B9B7803F00803002B22D197
:10BBC000019B9B78184609F02CFE1CE00820FFF72B
:10BBD000C5F9019800F0F4F916E00920FFF7BEF965
:10BBE000019800F0EDF90FE00A20FFF7B7F901988E
:10BBF00000F0E6F908E000BF06E000BF04E000BF87
:10BC000002E000BF00E000BF00BF07B05DF804FB2A
:10BC1000BCFD0300202E00202C2E0020C0FD0300C0
:10BC2000C4FD0300C8FD030000B583B000230193E9
:10BC3000394B1B68002B07D1384B39491846FEF7A2
:10BC400030F80346344A1360334B1B68002B32D064
:10BC5000314B1B689B88002B1ED02F4B1B68DB8849
:10BC6000B3F5006F03D32C4B1B680022DA802A4BFC
:10BC70001B68DA88511C89B2D9801346ADF80630AA
:10BC8000254B1B689A88013A92B29A8001AB1846FC
:10BC9000FFF75EFD01233AE01F4B1B681846FFF7D4
:10BCA00057FD1E4B1E491846FEF714F81A4B00228A
:10BCB0001A6001232BE01B4B1B68002B26D00023AE
:10BCC0008DF803300DF103031846FDF7A1FB164B69
:10BCD0001B88B3F5006F02D3134B00221A80124B5E
:10BCE0001B885A1C91B2104A1180ADF80630012110
:10BCF0000C48FEF7DBF89DF803301846FDF792FB81
:10BD000001AB1846FFF724FD012300E0002318468D
:10BD100003B05DF804FB00BF382E0020742D002016
:10BD20003C2E0020842D0020882D002000B589B0F5
:10BD3000019000238DF819301CE000238DF81B3092
:10BD40000BE00398FFF77BF803461846FFF7C2F9AC
:10BD50000346002B01D011235DE09DF81B305A1CD7
:10BD60008DF81B2019460598FFF74FF80390039BA9
:10BD7000002BE6D19DF819305A1C8DF81920194670
:10BD80000198FFF715F80590059B002BD5D10023EE
:10BD90008DF8193018E000238DF81A3007E0049868
:10BDA000FFF74DF8034601991846FFF7A3F99DF8F0
:10BDB0001A305A1C8DF81A2019460598FFF725F8F5
:10BDC0000490049B002BEAD19DF819305A1C8DF881
:10BDD000192019460198FEF7EBFF0590059B002BF3
:10BDE000D9D10F4B079306E0079B1B681846FFF756
:10BDF0002DF803460793079B1B68002BF4D1079B84
:10BE0000019A1A600B238DF8083002AB194601988D
:10BE1000FFF76EF80346184609B05DF804FB00BF53
:10BE20001C2E0020044B1B78002B14BF0123002381
:10BE3000DBB21846704700BF292E002000B583B042
:10BE400003468DF807309DF8073003F00803002BF8
:10BE500009D19DF80730184609F02BFD9DF80730F1
:10BE6000184609F0F0FC9DF80730184609F026FB4B
:10BE700000BF03B05DF804FB00B583B003468DF846
:10BE800007309DF80730184609F070FB00BF03B07B
:10BE90005DF804FB014B1B68184670471C2E002000
:10BEA000014B1B6818467047202E0020014B1B6871
:10BEB00018467047242E002000B587B00346009135
:10BEC0008DF80730FFF7E6FF059031E00598FEF7A3
:10BED00068FF03468DF8123000238DF813301DE003
:10BEE0009DF8133019460598FEF762FF03900398FA
:10BEF000FEF77DFF03461A469DF80730934208D1AE
:10BF0000009B002B03D0009B9DF813201A70059B0B
:10BF100012E09DF8133001338DF813309DF8132093
:10BF20009DF812309A42DBD30598FEF796FF0590F4
:10BF3000059B002BCAD10023184607B05DF804FB0F
:10BF400000B585B003900B4601928DF80B30019936
:10BF50000398FEF7CDFF0346184605B05DF804FBD5
:10BF600000B585B0034600918DF807309DF9073084
:10BF7000002B05DA9DF8073003F00F03082B09DDCD
:10BF80009DF90730002B16DB9DF8073003F00F03F7
:10BF9000082B10DC9DF807301846FFF775F80346AC
:10BFA0001B680393039B002B05D000990398FEF7B1
:10BFB0009FFF034600E01023184605B05DF804FB20
:10BFC00000B585B00190FFF765FF039007E0019988
:10BFD0000398FEF78DFF0398FEF73FFF0390039B46
:10BFE000002BF4D100BF00BF05B05DF804FB00B525
:10BFF00085B0019006230293FFF74CFF03900BE0FE
:10C0000001990398FEF774FF0290029B062B07D15B
:10C010000398FEF722FF0390039B002BF0D100E072
:10C0200000BF029B184605B05DF804FB00B583B065
:10C03000034600918DF807309DF80730184609F047
:10C0400029FA034683F00103DBB2002B01D0082359
:10C050000CE0084B1B78022B01D0082306E09DF86A
:10C0600007300099184609F0A1FA0346184603B0B4
:10C070005DF804FB282E002000B583B00346009134
:10C080008DF807309DF80730184609F003FA03468B
:10C0900083F00103DBB2002B01D008230CE0084B36
:10C0A0001B78022B01D0082306E09DF80730009989
:10C0B000184609F035FB0346184603B05DF804FB4B
:10C0C000282E002000B585B001900B468DF8033076
:10C0D00013468DF8023006230393019B5B689B682F
:10C0E000002B09D0019B5B689B689DF802209DF89E
:10C0F0000310019898470390039B062B08D19DF8E5
:10C1000002209DF8033019460198FFF7BBF9039010
:10C11000039B184605B05DF804FB00B583B00190A1
:10C120000B468DF80330019B5B68DB68002B07D062
:10C13000019B5B68DB689DF80320114601989847D6
:10C140009DF8033019460198FFF7D8F900BF03B0F6
:10C150005DF804FB00B585B001900B468DF8033007
:10C1600000238DF80F30019B5B681B69002B0AD000
:10C17000019B5B681B699DF8032011460198984755
:10C1800003468DF80F309DF80F30184605B05DF866
:10C1900004FB00B585B0FFF77DFE039020E0039817
:10C1A000FEF7FFFD03468DF80A3000238DF80B30B3
:10C1B0000CE09DF80B30002219460398FFF782FF30
:10C1C00001909DF80B3001338DF80B309DF80B205A
:10C1D0009DF80A309A42ECD30398FEF73EFE039096
:10C1E000039B002BDBD100BF00BF05B05DF804FB53
:10C1F00000B583B0FFF74EFE01901EE00198FEF7F8
:10C20000D0FD03468DF8023000238DF803300AE09C
:10C210009DF8033019460198FFF77FFF9DF8033022
:10C2200001338DF803309DF803209DF802309A42C7
:10C23000EED30198FEF711FE0190019B002BDDD19A
:10C2400000BF00BF03B05DF804FB82B00190019B0A
:10C2500003F1804303F51C33184602B0704700B564
:10C2600083B003468DF807309DF807301846FFF776
:10C27000ECFF034601221A60BFF36F8F00BFBFF3CC
:10C280004F8F00BF00BF03B05DF804FB82B00346D0
:10C290008DF807309DF8073003F01F03DBB2184616
:10C2A00002B0704782B003468DF807309DF8073022
:10C2B0005B0903F00303DBB2184602B0704782B09B
:10C2C00003468DF807309DF80730DB09DBB21846CE
:10C2D00002B0704782B00190019B1B7A184602B0F1
:10C2E000704782B00190019B1B68184602B07047EE
:10C2F00000B583B001900198FFF7F3FF03461B6878
:10C30000184603B05DF804FB82B00190019B1B78D6
:10C31000184602B07047000000B583B003468DF8A0
:10C3200007300E4B1B789DF807209A4211D00B4A1C
:10C330009DF8073013709DF80730052B06D0084B89
:10C340001B7823F00203DAB2054B1A700548FFF799
:10C35000FFF900BF03B05DF804FB00BF402E0020D2
:10C36000412E002030FE0300014B1B781846704719
:10C37000402E00204FF08043D3F8383403F00103FF
:10C38000002B14BF01230023DBB2184670470000C6
:10C39000024B00221A6000BF704700BF882E0020A9
:10C3A00000B585B003468DF807300B4B1B6803932F
:10C3B000039B002B0AD0FFF7EBFF074B59689DF852
:10C3C0000720039B10469847034600E00E231846BB
:10C3D00005B05DF804FB00BF882E0020044B1B68ED
:10C3E000002B14BF01230023DBB21846704700BFA7
:10C3F000882E002082B0034600918DF8073000237C
:10C40000184602B0704710B58EB0039002910192A9
:10C4100001238DF83730029B0993099B5B68002B41
:10C4200015D1099B1B681846FFF762FF0346002BD6
:10C430000DD1099B9B68002B09D100238DF8373063
:10C44000039B00221A60039B00225A60A2E0002393
:10C450000C9300238DF82B3009F0CAF90890099B42
:10C46000DB68019A934228BF13460B9386E0099B31
:10C470009B680B9A934228BF13460793099B5B68FE
:10C48000002B0CD0089A0C9BD018099B5B68079A6C
:10C49000194612F09AFC099B00225A6014E0099B8D
:10C4A0009B68002B10D0099B1B685B685C68099B2C
:10C4B00003F11000099B1968089A0C9B1A44079B0A
:10C4C000A04701238DF82B30099B9A68079BD21A4D
:10C4D000099B9A60099BDA68079BD21A099BDA606C
:10C4E0000B9A079BD31A0B930C9A079B13440C933C
:10C4F000099B9B68002B0BD19DF82B30002B07D09C
:10C50000099B1B681846FFF7F3FE0246099B1A6059
:10C51000099BDB68002B03D100238DF837302DE019
:10C52000099B9B68002B29D1099B1B68002B0DD10F
:10C53000099B00225A600C9B002B24D00C9A019B73
:10C540009A4220D200238DF837301CE00023059357
:10C5500004E0099B9B685A1C099B9A60099B1B6815
:10C560005B685C68099B196805A801230022A04745
:10C570000346002BEDD1099B00221A610B9B002B77
:10C580007FF475AF00E000BF039B089A1A60039B1D
:10C590000C9A5A609DF8373018460EB010BD00B5A1
:10C5A00087B00190019B5B781846FFF77BFE03463E
:10C5B000002B01D006237FE0019B5B798DF81730BB
:10C5C000FFF7D2FE03468DF81630019B9B78032BB4
:10C5D00029D0032B6ADC002B02D0012B42D065E06E
:10C5E0009DF81630052B05D09DF8173003F00F038A
:10C5F000002B16D103AB184600F0BCFC04909DF84C
:10C600001730184609F042F903469AB2049B1A8083
:10C61000019B013302220499184600F039FC0346BD
:10C620004AE0082348E09DF8173003F00803002B88
:10C630003ED1019BB3F803309BB2002B38D19DF85B
:10C640001630052B05D09DF8173003F00F03002B93
:10C6500006D19DF81730184609F0E3F800232BE0C7
:10C66000082329E09DF8173003F00803002B21D19F
:10C67000019BB3F803309BB2002B1BD19DF8163001
:10C68000052B05D09DF8173003F00F03002B0BD1BD
:10C690009DF81730184609F00CF99DF81730184628
:10C6A00009F0D1F8002307E0082305E000BF02E00D
:10C6B00000BF00E000BF0623184607B05DF804FB8A
:10C6C00000B58BB003900B4601928DF80B30019BA7
:10C6D0005B781846FFF7E6FD0346002B01D00623E2
:10C6E0006AE0FFF741FE03468DF82730019B5B7837
:10C6F0001846FFF7E4FD0346012B3BD1019B9B78D5
:10C70000002B02D00A2B17D055E09DF82730052BBF
:10C7100001D0082350E006AB184600F02BFC079030
:10C72000079B00221A80019B0133022207991846B9
:10C7300000F0AEFB03463FE09DF82730052B01D00B
:10C74000082339E005AB184600F014FC08909DF86A
:10C750000B3019460398FFF7FDFC03461A46089B69
:10C760001A70019B013301220899184600F090FBD2
:10C77000034621E0019B9B780B2B1BD19DF82730B2
:10C78000052B01D0082317E0019BB3F803309BB2BF
:10C79000FF2B01D907230FE0019BDB788DF82630B2
:10C7A0009DF826209DF80B3019460398FFF78AFC68
:10C7B000034601E000BF062318460BB05DF804FBFA
:10C7C00000B585B00190009102AB184600F0D2FB95
:10C7D000039002220021039812F020FBC02303F0F3
:10C7E0004003002B06D0039B1B7843F00103DAB211
:10C7F000039B1A700D4B1B785B08DBB203F001033F
:10C80000002B06D0039B1B7843F00203DAB2039B94
:10C810001A70009B013302220399184600F038FB7E
:10C820000346184605B05DF804FB00BF412E00200A
:10C8300010B590B001900091009B1B79032B00F084
:10C84000A780032B00F3D280012B02D0022B11D042
:10C85000CCE0009BB3F807309BB2002B01D1002342
:10C86000C6E0009B013312226349184600F010FB1A
:10C870000346BDE0009BB3F807309BB2002B01D10B
:10C880000023B5E0009BB3F807309BB2092B28BF0B
:10C8900009239BB2089309230C9300238DF83B30A6
:10C8A000FFF7F8FA0D9024E000230F930023049380
:10C8B00002E00F9B01330F930D9B5B685C6804A83B
:10C8C000012300220D99A0470346002BF1D10C9AB9
:10C8D0000F9B13440C930D98FFF7FCFC03461A467C
:10C8E0009DF83B3013448DF83B300D98FFF700FD69
:10C8F0000D900D9B002BD7D106AB184600F03AFBEC
:10C900000790089A3D49079812F05FFA079B9DF837
:10C910003B201A710C9B9AB2079B5A80FFF782FA50
:10C920000346002B06D0079BDB7943F02003DAB2E5
:10C93000079BDA71FFF7AEFA0346314A1360304ABB
:10C94000079B53602E4A089B9360009BB3F8073007
:10C950009BB21A462A4BDA6000238DF80F300DF196
:10C960000F031846FCF754FD26498020FFF784FB8F
:10C970000B900B9B002B04D12349802000F0DCFAA4
:10C980000B909DF80F301846FCF74CFD0B9B2FE0E9
:10C99000009BB3F807309BB2002B01D1002327E0A6
:10C9A000009BDB788DF82B30009B5A799B791B021A
:10C9B0001343ADF82830BDF828209DF82B301146E0
:10C9C000184600F085FB0990099B002B01D1062336
:10C9D0000EE0009B5C1C0998FFF796FC03461A4684
:10C9E0000999204600F054FA034601E000BF0623EF
:10C9F000184610B010BD00BFDCFD0300F0FD0300C1
:10CA00009C2E002028FE030020FE030000B587B006
:10CA10000190009103AB184600F0ACFA0590FFF7C7
:10CA2000A3FC03468DF813309DF81330052B03D17A
:10CA3000059B01221A7009E09DF81330042B03D1E5
:10CA4000059B00221A7001E0062307E0009B0133DA
:10CA500001220599184600F01BFA0346184607B054
:10CA60005DF804FB00B585B001900091FFF77CFCF8
:10CA700003468DF80F309DF80F30052B05D09DF83B
:10CA80000F30042B01D0082316E0009BDB78002B2D
:10CA900005D1FFF7ADFB0420FFF73EFC0BE0009B48
:10CAA000DB78012B05D1FFF774FB0520FFF734FC81
:10CAB00001E0072300E00023184605B05DF804FB01
:10CAC00000B583B001900091009B5B781846FFF79A
:10CAD000E9FB0346002B01D006237FE0009B5B7837
